:020000040800F2
:1000000000C00020690D0008F10C0008F90C000880
:10001000010D0008090D0008110D00080000000086
:10002000000000000000000000000000190D0008A2
:10003000250D000800000000310D00083D0D0008EE
:10004000B10D0008B10D0008B10D0008B10D000898
:10005000B10D0008B10D0008B10D0008B10D000888
:10006000B10D0008B10D0008B10D0008B10D000878
:10007000B10D0008B10D0008B10D0008B10D000868
:10008000B10D0008B10D0008B10D0008B10D000858
:10009000B10D0008B10D0008B10D0008B10D000848
:1000A000B10D0008B10D0008B10D0008B10D000838
:1000B000490D0008B10D0008B10D0008B10D000890
:1000C000B10D0008B10D0008B10D0008B10D000818
:1000D000B10D0008B10D0008B10D0008B10D000808
:1000E000B10D0008B10D0008B10D0008B10D0008F8
:1000F000B10D0008B10D0008B10D0008B10D0008E8
:10010000B10D0008B10D0008B10D0008B10D0008D7
:10011000B10D0008B10D0008B10D0008B10D0008C7
:10012000B10D0008B10D0008B10D0008B10D0008B7
:1001300000000000000000000000000000000000BF
:1001400000000000000000000000000000000000AF
:10015000000000000000000000000000000000009F
:10016000000000000000000000000000000000008F
:10017000000000000000000000000000000000007F
:10018000000000000000000000000000000000006F
:10019000000000000000000000000000000000005F
:1001A000000000000000000000000000000000004F
:1001B000000000000000000000000000000000003F
:1001C000000000000000000000000000000000002F
:1001D000000000000000000000000000000000001F
:0401E0005FF8E0F1F3
:1001E40010B5054C237833B9044B13B10448AFF36D
:1001F40000800123237010BD0C00002000000000CB
:100204000436000808B5034B1BB103490348AFF398
:10021400008008BD00000000100000200436000823
:10022400034613F8012B002AFBD1181A0138704732
:1002340080B582B000AF78607868FFF7F1FF0346BD
:100244009AB24FF0FF337968034802F041FF00BFD0
:100254000837BD4680BD00BF9C01002080B586B034
:1002640000AF00F0A5FD00F067F800F053FA00F0CD
:10027400B5F800F0F1F800F019F900F021FA00F0F7
:100284009DF900F0E7F900F049F9274800F000FB78
:10029400264802F0F7FA0023FB752548FFF7C8FF4C
:1002A400F91C4FF0FF330122224802F09CFFF91C95
:1002B4004FF0FF3301221F4802F00AFFFB7DFA785A
:1002C40018333B4403F8142CFB780D2B02D0FB7835
:1002D4000A2B0AD1FB7D18333B44002203F8142C6B
:1002E40000BF7B79002B0DD103E0FB7D0133FB754F
:1002F400D6E73B7903F00F03DBB219460A4800F056
:100304001DFBC8E7BB79002BC5D13B791B01DAB2D1
:100314007B7903F00F03DBB21344DBB219460248C6
:1003240000F00CFBB7E700BFE40100200C01002043
:100334001C3600089C01002080B596B000AF07F180
:10034400300328220021184603F02EF907F11C037C
:1003540000221A605A609A60DA601A613B1D00221A
:100364001A605A609A60DA601A615A6102233B6328
:1003740001233B6410237B640023FB6407F13003F7
:10038400184601F0E9FA0346002B01D000F07AFA8E
:100394000F23FB6100233B6200237B620023BB62CB
:1003A4000023FB6207F11C030021184601F056FDEF
:1003B4000346002B01D000F065FA02237B60002382
:1003C400FB603B1D184601F0D7FE0346002B01D00D
:1003D40000F058FA00BF5837BD4680BD80B584B0E0
:1003E40000AF3B1D00221A605A609A60184B194AEC
:1003F4001A60174B00229A60154B00221A73144B93
:1004040000221A75124B4FF46022DA61104B00225D
:100414005A600F4B01221A610D4800F02BFD034670
:10042400002B01D000F02EFA00237B600123BB6077
:100434000023FB603B1D1946054800F005FE0346FA
:10044400002B01D000F01EFA00BF1037BD4680BD5E
:10045400280000200024014080B582B000AF3B4654
:1004640000221A605A600F4B0F4A1A600D4801F0BF
:1004740032F80346002B01D000F004FA00233B605D
:1004840000237B603B4610221946064801F045F8DC
:100494000346002B01D000F0F5F900BF0837BD4634
:1004A40080BD00BF580000200074004080B500AF3C
:1004B400184B194A1A60174B4FF482725A60154B45
:1004C40000229A60134B4FF40062DA60114B002251
:1004D4001A61104B00225A610E4B4FF400729A615C
:1004E4000C4B0022DA610B4B00221A62094B0022EA
:1004F4005A62084B00229A62064B0A22DA620548C5
:1005040001F0F0FE0346002B01D000F0BBF900BF60
:1005140080BD00BF6C0000200030014080B586B073
:1005240000AF07F1080300221A605A609A60DA608B
:100534003B4600221A605A601E4B1F4A1A601D4B2C
:1005440000225A601B4B00229A601A4B4FF6FF722E
:10055400DA60184B00221A61164B00225A61154BBF
:1005640000229A61134802F03EF90346002B01D0A1
:1005740000F088F94FF48053BB6007F10803194673
:100584000C4802F0CFFA0346002B01D000F07AF9B0
:1005940000233B6000237B603B461946054802F07C
:1005A400C9FC0346002B01D000F06CF900BF1837DA
:1005B400BD4680BDC4000020002C014080B586B03B
:1005C40000AF07F1080300221A605A609A60DA60EB
:1005D4003B4600221A605A601D4B4FF080421A605D
:1005E4001B4B40F2E7325A60194B00229A60184BB9
:1005F4005A22DA60164B00221A61154B00229A61C6
:10060400134802F0F0F80346002B01D000F03AF949
:100614004FF48053BB6007F1080319460C4802F0FD
:1006240081FA0346002B01D000F02CF900233B6033
:1006340000237B603B461946054802F07BFC0346D9
:10064400002B01D000F01EF900BF1837BD4680BD55
:100654000C01002080B582B000AF3B4600221A6036
:100664005A60154B154A1A60134B00225A60124BFC
:1006740000229A60104B4FF6FF72DA600E4B002294
:100684009A610D4802F0AFF80346002B01D000F048
:10069400F9F800233B6000237B603B46194606487B
:1006A40002F048FC0346002B01D000F0EBF800BF39
:1006B4000837BD4680BD00BF540100200010004033
:1006C40080B500AF114B124A1A60104B4FF4E1325F
:1006D4005A600E4B00229A600C4B0022DA600B4BDE
:1006E40000221A61094B0C225A61084B00229A61BC
:1006F400064B0022DA61054802F09AFC0346002BFF
:1007040001D000F0BFF800BF80BD00BF9C010020F5
:100714000038014080B588B000AF07F11003002213
:100724001A605A609A60DA60494B9B69484A43F000
:1007340010039361464B9B6903F01003FB60FB6855
:10074400434B9B69424A43F020039361404B9B69AE
:1007540003F02003BB60BB683D4B9B693C4A43F0FC
:10076400040393613A4B9B6903F004037B607B6849
:10077400374B9B69364A43F008039361344B9B69BA
:1007840003F008033B603B68002248F24001314813
:1007940001F0B0F801224FF460712E4801F0AAF87C
:1007A4004FF440533B6100237B610023BB6107F19D
:1007B40010031946274800F009FF4FF400433B613A
:1007C40001237B610223BB610223FB6107F1100358
:1007D4001946204800F0FAFE80233B6100237B6128
:1007E4000023BB6107F1100319461B4800F0EEFE1D
:1007F40040233B6101237B610023BB610223FB6136
:1008040007F110031946134800F0E0FE80233B6112
:1008140001237B610023BB610323FB6107F1100308
:1008240019460C4800F0D2FE4FF440733B6101239B
:100834007B610023BB610123FB6107F110031946AF
:10084400044800F0C3FE00BF2037BD4680BD00BF92
:1008540000100240000C01400010014080B582B03D
:1008640000AF78607B68054A934202D1044800F0E7
:100874002FF800BF0837BD4680BD00BF0C01002023
:10088400E401002080B400AF72B600BF00BFFDE7F2
:1008940080B582B000AF78607B68FF221A707B68F5
:1008A40000229A707B681B7803F00F03DAB27B682E
:1008B4005A707B6840F24D125A604FF480710348BD
:1008C40001F030F800BF0837BD4680BD000C014080
:1008D40080B582B000AF78604FF48071164801F0A3
:1008E40021F84FF40071144801F01CF87B689B78E0
:1008F400012B0DD17B681B7803F00F03DAB27B6800
:100904005A70786800F040F87B6800229A700FE013
:100914007B689B78002B0BD17B681B781B09DAB2B0
:100924007B685A70786800F02FF87B6801229A700F
:1009340000BF0837BD4680BD000C014080B483B0C1
:1009440000AF78600B46FB707B68FA781A707B689E
:100954009B78002B07D17B681B7803F00F03DAB276
:100964007B685A700AE07B689B78012B06D17B6810
:100974001B781B09DAB27B685A7000BF00BF0C37C2
:10098400BD4680BC7047000080B582B000AF78607F
:100994007B685B785B000A4A99184FF0FF330122A9
:1009A400084801F023FD8021074800F0BBFF8021A7
:1009B400054800F0B7FF00BF0837BD4680BD00BF43
:1009C400303600086C000020000C014080B485B073
:1009D40000AF154B9B69144A43F001039361124B1A
:1009E4009B6903F00103BB60BB680F4BDB690E4AD4
:1009F40043F08053D3610C4BDB6903F080537B607D
:100A04007B680A4B5B68FB60FB6823F0E063FB6078
:100A1400FB6843F00073FB60044AFB68536000BF4B
:100A24001437BD4680BC70470010024000000140EE
:100A340080B588B000AF786007F1100300221A6017
:100A44005A609A60DA607B681B68144A934221D129
:100A5400134B9B69124A43F400739361104B9B69D7
:100A640003F40073FB60FB680D4B9B690C4A43F075
:100A7400040393610A4B9B6903F00403BB60BB68E6
:100A840001233B6103237B6107F1100319460548E9
:100A940000F09CFD00BF2037BD4680BD002401400E
:100AA400001002400008014080B588B000AF7860B3
:100AB40007F1100300221A605A609A60DA607B68BA
:100AC4001B68144A934221D1134BDB69124A43F049
:100AD4000053D361104BDB6903F00053FB60FB68E8
:100AE4000D4B9B690C4A43F0040393610A4B9B69C9
:100AF40003F00403BB60BB6820233B6103237B61D9
:100B040007F110031946054800F060FD00BF2037C7
:100B1400BD4680BD00740040001002400008014042
:100B240080B58AB000AF786007F1140300221A6020
:100B34005A609A60DA607B681B681C4A934231D120
:100B44001B4B9B691A4A43F480539361184B9B696E
:100B540003F480533B613B69154B9B69144A43F092
:100B640008039361124B9B6903F00803FB60FB6865
:100B740028237B610223BB6103233B6207F1140337
:100B840019460C4800F022FD0B4B5B687B627B6AC4
:100B940043F0E0637B627B6A43F001037B62064AB5
:100BA4007B6A536000BF2837BD4680BD00300140DA
:100BB40000100240000C01400000014080B586B0E6
:100BC40000AF78607B681B681F4A93420CD11F4BAF
:100BD4009B691E4A43F4006393611C4B9B6903F4B5
:100BE40000637B617B692AE07B681B68B3F1804FFB
:100BF40014D1164BDB69154A43F00103D361134B3F
:100C0400DB6903F001033B613B69002200211C20E6
:100C140000F02BFC1C2000F044FC10E07B681B68F7
:100C24000B4A93420BD1094BDB69084A43F010038A
:100C3400D361064BDB6903F01003FB60FB6800BF64
:100C44001837BD4680BD00BF002C01400010024093
:100C54000010004080B588B000AF786007F1100341
:100C640000221A605A609A60DA607B681B681C4A2A
:100C7400934231D11B4B9B691A4A43F480439361DD
:100C8400184B9B6903F48043FB60FB68154B9B691D
:100C9400144A43F004039361124B9B6903F0040369
:100CA400BB60BB684FF400733B6102237B61032389
:100CB400FB6107F1100319460B4800F087FC4FF461
:100CC40080633B6100237B610023BB6107F1100358
:100CD4001946054800F07AFC00BF2037BD4680BDA8
:100CE40000380140001002400008014080B400AF09
:100CF40000BFFDE780B400AF00BFFDE780B400AFE4
:100D040000BFFDE780B400AF00BFFDE780B400AFD3
:100D140000BFFDE780B400AF00BFBD4680BC704794
:100D240080B400AF00BFBD4680BC704780B400AF44
:100D340000BFBD4680BC704780B500AF00F07EF8B0
:100D440000BF80BD80B500AF024801F0FBFD00BFCD
:100D540080BD00BF0C01002080B400AF00BFBD46C1
:100D640080BC7047FFF7F8FF0B480C490C4A00237E
:100D740002E0D458C4500433C4188C42F9D3094A4D
:100D8400094C002301E013600432A242FBD302F0B9
:100D940013FCFFF763FA7047000000200C000020EA
:100DA4008C3600080C000020F0010020FEE7000053
:100DB40080B500AF084B1B68074A43F0100313606B
:100DC400032000F047FB0F2000F008F8FFF7FEFDBA
:100DD4000023184680BD00BF0020024080B582B0C9
:100DE40000AF7860124B1A68124B1B7819464FF407
:100DF4007A73B3FBF1F3B2FBF3F3184600F05FFB35
:100E04000346002B01D001230EE07B680F2B0AD888
:100E1400002279684FF0FF3000F027FB064A7B6818
:100E24001360002300E0012318460837BD4680BD47
:100E340000000020080000200400002080B400AF5F
:100E4400054B1B781A46054B1B681344034A136071
:100E540000BFBD4680BC704708000020EC010020A4
:100E640080B400AF024B1B681846BD4680BC704777
:100E7400EC01002080B586B000AF78600023FB75DC
:100E840000233B610023BB600023FB607B68002BD5
:100E940001D10123CEE07B689B68002B7B689B6AB1
:100EA400002B09D17B680022DA627B68002283F878
:100EB40024207868FFF7BCFD786800F0BDF903468C
:100EC400FB757B689B6A03F01003002B40F0A9803C
:100ED400FB7D002B40F0A5807B689B6A23F488533C
:100EE40023F0020343F002027B689A627B685A682B
:100EF4007B681B6851498B420AD17B68DB69B3F577
:100F0400402F02D07B68DB6904E04FF4002301E04A
:100F14007B68DB691A437B681B7B5B001343BA68FD
:100F24001343BB607B689B68B3F5807F03D07B6809
:100F34009B68012B02D14FF4807300E000233A69CF
:100F440013433B617B681B7D012B19D17B681B7BA1
:100F5400002B09D17B689B69013B5A033B6913430E
:100F640043F400633B610BE07B689B6A43F020021F
:100F74007B689A627B68DB6A43F001027B68DA6211
:100F84007B681B685B6823F469417B681B683A696A
:100F94000A435A607B681B689A68294B13407A6835
:100FA4001268B9680B4393607B689B68B3F5807FD4
:100FB40003D07B689B68012B04D17B681B69013BD0
:100FC4001B05FB607B681B68DB6A23F470017B688C
:100FD4001B68FA680A43DA627B681B689A68194BD3
:100FE4001340BA689A420BD17B680022DA627B68AC
:100FF4009B6A23F0030343F001027B689A6218E0C2
:101004007B689B6A23F0120343F010027B689A62A8
:101014007B68DB6A43F001027B68DA620123FB75BB
:1010240007E07B689B6A43F010027B689A620123A5
:10103400FB75FB7D18461837BD4680BD003C01405A
:10104400FDF7E1FFFE0E1FFF80B485B000AF7860AE
:1010540039600023FB730023BB607B6893F8243062
:10106400012B01D10223DCE07B68012283F82420D8
:101074003B685B68062B1CD87B681B68596B3B6814
:101084005A6813469B001344053B1F2202FA03F3DC
:10109400DB4319403B6818683B685A6813469B0059
:1010A4001344053B00FA03F27B681B680A435A6346
:1010B4003CE03B685B680C2B1CD87B681B68196B95
:1010C4003B685A6813469B001344233B1F2202FAD1
:1010D40003F3DB4319403B6818683B685A681346BE
:1010E4009B001344233B00FA03F27B681B680A430A
:1010F4001A631BE07B681B68D96A3B685A6813460D
:101104009B001344413B1F2202FA03F3DB431940C3
:101114003B6818683B685A6813469B001344413B7C
:1011240000FA03F27B681B680A43DA623B681B68B7
:10113400092B1CD97B681B68D9683B681A6813465D
:101144005B0013441E3B072202FA03F3DB431940FE
:101154003B6898683B681A6813465B0013441E3B5F
:1011640000FA03F27B681B680A43DA6019E07B68C3
:101174001B6819693B681A6813465B00134407220D
:1011840002FA03F3DB4319403B6898683B681A682A
:1011940013465B00134400FA03F27B681B680A439E
:1011A4001A613B681B68102B03D03B681B68112B2A
:1011B40032D17B681B681D4A934225D17B681B682A
:1011C4009B6803F40003002B26D17B681B689A6894
:1011D4007B681B6842F400029A603B681B68102B12
:1011E4001AD1134B1B68134AA2FB03239A0C134610
:1011F4009B0013445B00BB6002E0BB68013BBB6027
:10120400BB68002BF9D107E07B689B6A43F020029E
:101214007B689A620123FB737B68002283F8242095
:10122400FB7B18461437BD4680BC70470024014040
:101234000000002083DE1B4380B584B000AF7860DB
:101244000023FB607B681B689B6803F00103012B90
:101254002ED17B681B689A687B681B6822F00102A8
:101264009A60FFF7FDFDF8601BE0FFF7F9FD024609
:10127400FB68D31A022B14D97B681B689B6803F0A4
:101284000103012B0DD17B689B6A43F010027B683C
:101294009A627B68DB6A43F001027B68DA620123AD
:1012A40007E07B681B689B6803F00103012BDCD01B
:1012B400002318461037BD4680BD000080B485B0B9
:1012C40000AF78607B6803F00703FB600C4BDB68BE
:1012D400BB60BA684FF6FF031340BB60FB681A0299
:1012E400BB68134343F0BF6343F40033BB60044A59
:1012F400BB68D36000BF1437BD4680BC704700BFD5
:1013040000ED00E080B400AF044BDB681B0A03F07F
:1013140007031846BD4680BC704700BF00ED00E0DF
:1013240080B483B000AF0346FB7197F90730002BFC
:101334000BDBFB7903F01F02064997F907305B09C1
:10134400012000FA02F241F8232000BF0C37BD4609
:1013540080BC704700E100E080B483B000AF034676
:101364003960FB7197F90730002B0ADB3B68DAB26E
:101374000C4997F907301201D2B20B4483F80023C9
:101384000AE03B68DAB20849FB7903F00F03043B37
:101394001201D2B20B441A7600BF0C37BD4680BC92
:1013A400704700BF00E100E000ED00E080B489B0C8
:1013B40000AFF860B9607A60FB6803F00703FB6173
:1013C400FB69C3F10703042B28BF0423BB61FB693A
:1013D4000433062B02D9FB69033B00E000237B6145
:1013E4004FF0FF32BB6902FA03F3DA43BB681A40D9
:1013F4007B699A404FF0FF317B6901FA03F3D943CB
:101404007B680B40134318462437BD4680BC7047A5
:1014140080B582B000AF78607B68013BB3F1807F18
:1014240001D301230FE00A4A7B68013B53600F217B
:101434004FF0FF30FFF790FF054B00229A60044BFA
:1014440007221A60002318460837BD4680BD00BF36
:1014540010E000E080B582B000AF78607868FFF7F4
:101464002DFF00BF0837BD4680BD80B586B000AFF4
:101474000346B9607A60FB7300237B61FFF742FF88
:1014840078617A68B9687869FFF790FF024697F93E
:101494000F3011461846FFF75FFF00BF1837BD46EF
:1014A40080BD80B582B000AF0346FB7197F9073069
:1014B4001846FFF735FF00BF0837BD4680BD80B52D
:1014C40082B000AF78607868FFF7A2FF0346184641
:1014D4000837BD4680BD80B582B000AF78607B68B8
:1014E400002B01D1012314E07B681B79DBB2002BB4
:1014F40005D17B6800225A717868FFF7D5FA7B68BA
:1015040002221A717B6800221A617B6801221A7117
:10151400002318460837BD4680BD80B489B000AFAB
:10152400F860B9607A600023FB77FB68002B02D077
:10153400BB68002B01D1012342E0FB685B79012BDE
:1015440001D102233CE0FB6801225A71FB680222AC
:101554001A71FB681B681B68BB617B6803F010038E
:1015640040F6FE7202FA03F3DB43BA691340BB612F
:10157400BB681A68BB685B6813437B617B6803F0D4
:1015840010037A6902FA03F3BA691343BB61FB6877
:101594001B68BA691A60FB681B6819687B6803F0EA
:1015A4001003C02202FA03F3DA43FB681B680A4003
:1015B4001A60FB6801221A71FB6800225A71FB7FD2
:1015C40018462437BD4680BC7047000080B48BB0F9
:1015D40000AF7860396000237B6200233B6279E1CD
:1015E40001227B6A02FA03F3FB613B681B68FA6918
:1015F4001340BB61BA69FB699A4240F068813B6859
:101604005B68964A93425ED0944A934275D8944A52
:10161400934258D0924A93426FD8924A934252D0FE
:10162400904A934269D8904A93424CD08E4A93424E
:1016340063D88E4A934246D08C4A93425DD8122B8B
:101644002AD8122B59D801A252F823F0CB1600083D
:10165400A5160008B7160008F9160008FF160008BA
:10166400FF160008FF160008FF160008FF16000802
:10167400FF160008FF160008FF160008FF160008F2
:10168400FF160008FF160008FF160008FF160008E2
:10169400AD160008C1160008754A934213D02CE019
:1016A4003B68DB683B6229E03B68DB6804333B62F0
:1016B40024E03B68DB6808333B621FE03B68DB687F
:1016C4000C333B621AE03B689B68002B02D1042375
:1016D4003B6213E03B689B68012B05D108233B6206
:1016E4007B68FA691A6109E008233B627B68FA693E
:1016F4005A6103E000233B6200E000BFBB69FF2B9B
:1017040001D87B6801E07B6804337B61BB69FF2BF4
:1017140002D87B6A9B0002E07B6A083B9B003B612A
:101724007B691A680F213B6901FA03F3DB431A4012
:10173400396A3B6901FA03F31A437B691A603B680F
:101744005B6803F08053002B00F0C180494B9B6918
:10175400484A43F001039361464B9B6903F001033C
:10176400BB60BB68444A7B6A9B08023352F823304F
:10177400FB607B6A03F003039B000F2202FA03F36E
:10178400DB43FA681340FB607B683C4A93421FD0FA
:101794007B683B4A934219D07B683A4A934213D000
:1017A4007B68394A93420DD07B68384A934207D00C
:1017B4007B68374A934201D105230AE0062308E0F7
:1017C400042306E0032304E0022302E0012300E0F3
:1017D40000237A6A02F0030292009340FA681343EA
:1017E400FB6025497B6A9B080233FA6841F8232091
:1017F4003B685B6803F48013002B06D0254B9A6882
:101804002449BB6913438B6006E0224B9A68BB6989
:10181400DB43204913408B603B685B6803F400138F
:10182400002B06D01B4BDA681A49BB691343CB6003
:1018340006E0184BDA68BB69DB4316491340CB60FA
:101844003B685B6803F40033002B25D0114B5A68C6
:101854001049BB6913434B6025E000BF0000321000
:1018640000003110000022100000211000001210AE
:101874000000111000100240000001400008014067
:10188400000C014000100140001401400018014008
:10189400001C014000040140154B5A68BB69DB433E
:1018A400134913404B603B685B6803F48033002B9F
:1018B40006D00F4B1A680E49BB6913430B6006E050
:1018C4000B4B1A68BB69DB43094913400B607B6A05
:1018D40001337B623B681A687B6A22FA03F3002BAC
:1018E4007FF47EAE00BF00BF2C37BD4680BC70477E
:1018F4000004014080B483B000AF78600B467B8065
:1019040013467B707B78002B03D07A887B681A613E
:1019140003E07B881A047B681A6100BF0C37BD465C
:1019240080BC704780B485B000AF78600B467B8084
:101934007B68DB68FB607A88FB6813401A04FB68E9
:10194400D9437B880B401A437B681A6100BF143764
:10195400BD4680BC7047000080B586B000AF78609B
:101964007B68002B01D1012372E27B681B6803F0C2
:101974000103002B00F08780924B5B6803F00C039B
:10198400042B0CD08F4B5B6803F00C03082B12D193
:101994008C4B5B6803F48033B3F5803F0BD1894BE8
:1019A4001B6803F40033002B6CD07B685B68002B4E
:1019B40068D101234CE27B685B68B3F5803F06D1B4
:1019C400804B1B687F4A43F4803313602EE07B68AE
:1019D4005B68002B0CD17B4B1B687A4A23F4803361
:1019E4001360784B1B68774A23F4802313601DE04F
:1019F4007B685B68B3F5A02F0CD1724B1B68714AEE
:101A040043F4802313606F4B1B686E4A43F48033A6
:101A140013600BE06B4B1B686A4A23F4803313603A
:101A2400684B1B68674A23F4802313607B685B68F8
:101A3400002B13D0FFF714FA386108E0FFF710FA0F
:101A440002463B69D31A642B01D9032300E25D4BA0
:101A54001B6803F40033002BF0D014E0FFF700FA06
:101A6400386108E0FFF7FCF902463B69D31A642B9E
:101A740001D90323ECE1534B1B6803F40033002B1F
:101A8400F0D100E000BF7B681B6803F00203002B69
:101A940063D04C4B5B6803F00C03002B0BD0494B19
:101AA4005B6803F00C03082B1CD1464B5B6803F402
:101AB4008033002B16D1434B1B6803F00203002B29
:101AC40005D07B681B69012B01D00123C0E13D4B8C
:101AD4001B6823F0F8027B685B69DB003949134318
:101AE4000B603AE07B681B69002B20D0364B012247
:101AF4001A60FFF7B5F9386108E0FFF7B1F902465B
:101B04003B69D31A022B01D90323A1E12D4B1B6896
:101B140003F00203002BF0D02A4B1B6823F0F802D9
:101B24007B685B69DB00274913430B6015E0264B98
:101B340000221A60FFF794F9386108E0FFF790F982
:101B440002463B69D31A022B01D9032380E11D4BC2
:101B54001B6803F00203002BF0D17B681B6803F0C1
:101B64000803002B3AD07B689B69002B19D0174BD4
:101B740001221A60FFF774F9386108E0FFF770F981
:101B840002463B69D31A022B01D9032360E10D4BB2
:101B94005B6A03F00203002BF0D0012000F0CEFAC0
:101BA4001CE00A4B00221A60FFF75AF938610FE073
:101BB400FFF756F902463B69D31A022B08D90323CF
:101BC40046E100BF0010024000004242800442424D
:101BD400924B5B6A03F00203002BE9D17B681B681C
:101BE40003F00403002B00F0A6800023FB758B4B4D
:101BF400DB6903F08053002B0DD1884BDB69874AE6
:101C040043F08053D361854BDB6903F08053BB60A1
:101C1400BB680123FB75824B1B6803F48073002BA4
:101C240018D17F4B1B687E4A43F480731360FFF71F
:101C340017F9386108E0FFF713F902463B69D31A34
:101C4400642B01D9032303E1754B1B6803F48073F0
:101C5400002BF0D07B68DB68012B06D16F4B1B6A2D
:101C64006E4A43F0010313622DE07B68DB68002BAE
:101C74000CD16A4B1B6A694A23F001031362674B58
:101C84001B6A664A23F0040313621CE07B68DB686A
:101C9400052B0CD1614B1B6A604A43F004031362A9
:101CA4005E4B1B6A5D4A43F0010313620BE05B4B1E
:101CB4001B6A5A4A23F001031362584B1B6A574AA2
:101CC40023F0040313627B68DB68002B15D0FFF755
:101CD400C7F838610AE0FFF7C3F802463B69D31A34
:101CE40041F28832934201D90323B1E04B4B1B6A82
:101CF40003F00203002BEED014E0FFF7B1F83861D3
:101D04000AE0FFF7ADF802463B69D31A41F2883284
:101D1400934201D903239BE0404B1B6A03F0020367
:101D2400002BEED1FB7D012B05D13C4BDB693B4AFB
:101D340023F08053D3617B68DB69002B00F087803C
:101D4400364B5B6803F00C03082B61D07B68DB69BE
:101D5400022B46D1334B00221A60FFF781F8386119
:101D640008E0FFF77DF802463B69D31A022B01D93C
:101D740003236DE0294B1B6803F00073002BF0D1A3
:101D84007B681B6AB3F5803F08D1244B5B6823F45E
:101D940000327B689B68214913434B601F4B5B688F
:101DA40023F474127B68196A7B685B6A0B431B49D2
:101DB40013434B601B4B01221A60FFF751F8386143
:101DC40008E0FFF74DF802463B69D31A022B01D90C
:101DD40003233DE0114B1B6803F00073002BF0D08C
:101DE40035E0104B00221A60FFF73AF8386108E03A
:101DF400FFF736F802463B69D31A022B01D90323B5
:101E040026E0064B1B6803F00073002BF0D11EE0A4
:101E14007B68DB69012B07D1012319E00010024024
:101E240000700040600042420B4B5B68FB60FB6843
:101E340003F480327B681B6A9A4206D1FB6803F480
:101E440070127B685B6A9A4201D0012300E0002390
:101E540018461837BD4680BD0010024080B584B0D6
:101E640000AF786039607B68002B01D10123D0E09A
:101E74006A4B1B6803F007033A689A4210D9674B10
:101E84001B6823F0070265493B6813430B60634BEF
:101E94001B6803F007033A689A4201D00123B8E0B3
:101EA4007B681B6803F00203002B20D07B681B684F
:101EB40003F00403002B05D0594B5B68584A43F4E4
:101EC400E06353607B681B6803F00803002B05D0B4
:101ED400534B5B68524A43F460535360504B5B6806
:101EE40023F0F0027B689B684D4913434B607B6889
:101EF4001B6803F00103002B40D07B685B68012B57
:101F040007D1474B1B6803F40033002B15D1012381
:101F14007FE07B685B68022B07D1414B1B6803F0B1
:101F24000073002B09D1012373E03D4B1B6803F0C0
:101F34000203002B01D101236BE0394B5B6823F0D2
:101F440003027B685B68364913434B60FEF788FFE6
:101F5400F8600AE0FEF784FF0246FB68D31A41F2F8
:101F64008832934201D9032353E02D4B5B6803F07D
:101F74000C027B685B689B009A42EBD1274B1B6881
:101F840003F007033A689A4210D2244B1B6823F0EB
:101F9400070222493B6813430B60204B1B6803F084
:101FA40007033A689A4201D0012332E07B681B6838
:101FB40003F00403002B08D0194B5B6823F4E062A0
:101FC4007B68DB68164913434B607B681B6803F02E
:101FD4000803002B09D0124B5B6823F460527B6822
:101FE4001B69DB000E4913434B6000F021F80246E5
:101FF4000B4B5B681B0903F00F030A49CB5C22FA05
:1020040003F3094A1360094B1B681846FEF7E6FE02
:10201400002318461037BD4680BD00BF0020024093
:102024000010024050360008000000200400002088
:1020340080B487B000AF0023FB600023BB600023A3
:102044007B6100237B6000233B611E4B5B68FB606C
:10205400FB6803F00C03042B02D0082B03D027E009
:10206400194B3B6127E0FB689B0C03F00F03174AF5
:10207400D35C7B60FB6803F48033002B10D0114BDE
:102084005B685B0C03F00103114AD35CBB607B68A3
:102094000D4A03FB02F2BB68B2FBF3F37B6104E07D
:1020A4007B680C4A02FB03F37B617B693B6102E0C2
:1020B400054B3B6100BF3B6918461C37BD4680BCDD
:1020C400704700BF0010024000127A006836000812
:1020D4007836000800093D0080B400AF024B1B684D
:1020E4001846BD4680BC70470000002080B500AF94
:1020F400FFF7F2FF0246054B5B681B0A03F0070378
:102104000349CB5C22FA03F3184680BD0010024059
:102114006036000880B500AFFFF7DEFF0246054BCE
:102124005B68DB0A03F007030349CB5C22FA03F381
:10213400184680BD001002406036000880B485B0A7
:1021440000AF78600A4B1B680A4AA2FB03235B0AB0
:102154007A6802FB03F3FB6000BFFB685A1EFA6057
:10216400002BF9D100BF00BF1437BD4680BC7047B7
:1021740000000020D34D621080B586B000AF7860B7
:1021840000233B610023FB607B681B6803F00103B1
:10219400002B7DD00023FB754F4BDB6903F080538C
:1021A400002B0DD14C4BDB694B4A43F08053D36178
:1021B400494BDB6903F08053BB60BB680123FB75AB
:1021C400464B1B6803F48073002B18D1434B1B68E8
:1021D400424A43F480731360FEF742FE386108E01C
:1021E400FEF73EFE02463B69D31A642B01D9032352
:1021F4006DE03A4B1B6803F48073002BF0D0364B30
:102204001B6A03F44073FB60FB68002B2ED07B68D1
:102214005B6803F44073FA689A4227D02E4B1B6A1A
:1022240023F44073FB602E4B01221A602C4B0022D6
:102234001A60294AFB681362FB6803F00103002B50
:1022440014D0FEF70DFE38610AE0FEF709FE0246DF
:102254003B69D31A41F28832934201D9032336E011
:102264001D4B1B6A03F00203002BEED01A4B1B6AB2
:1022740023F440727B685B68174913430B62FB7D50
:10228400012B05D1144BDB69134A23F08053D3612E
:102294007B681B6803F00203002B08D00E4B5B68BD
:1022A40023F440427B689B680B4913434B607B6873
:1022B4001B6803F01003002B08D0074B5B6823F462
:1022C40080027B685B69044913434B600023184612
:1022D4001837BD4680BD00BF0010024000700040AA
:1022E4004004424280B582B000AF78607B68002B26
:1022F40001D1012376E07B685B6A002B08D17B68FF
:102304005B68B3F5827F09D07B680022DA6105E05F
:102314007B6800221A617B6800225A617B68002274
:102324009A627B6893F85130DBB2002B06D17B684C
:10233400002283F850207868FEF7F2FB7B680222C3
:1023440083F851207B681B681A687B681B6822F03D
:1023540040021A607B685B6803F482727B689B6846
:1023640003F404431A437B68DB6803F400631A43F1
:102374007B681B6903F002031A437B685B6903F003
:1023840001031A437B689B6903F400731A437B6857
:10239400DB6903F038031A437B681B6A03F080038C
:1023A40042EA03017B689B6A03F400527B681B6862
:1023B4000A431A607B689B691A0C7B681B6802F0ED
:1023C40004025A607B681B68DA697B681B6822F424
:1023D4000062DA617B6800225A657B68012283F817
:1023E4005120002318460837BD4680BD80B588B00B
:1023F40000AFF860B9603B601346FB80FEF730FD28
:10240400F861FB887B83FB6893F85130DBB2012BC6
:1024140001D002232AE1BB68002B02D0FB88002BE9
:1024240001D1012322E1FB6893F85030012B01D143
:1024340002231BE1FB68012283F85020FB6803227E
:1024440083F85120FB6800225A65FB68BA681A6356
:10245400FB68FA889A86FB68FA88DA86FB680022A9
:102464009A63FB6800229A87FB680022DA87FB687C
:1024740000225A64FB6800221A64FB689B68B3F567
:10248400004F0FD1FB681B681A68FB681B6822F0B9
:1024940040021A60FB681B681A68FB681B6842F4F8
:1024A40080421A60FB681B681B6803F04003402BE2
:1024B40007D0FB681B681A68FB681B6842F040027F
:1024C4001A60FB68DB68B3F5006F52D1FB685B6888
:1024D400002B02D07B8B012B45D1FB681B6B1A8828
:1024E400FB681B68DA60FB681B6B9A1CFB681A6349
:1024F400FB68DB8E9BB2013B9AB2FB68DA8632E062
:10250400FB681B689B6803F00203022B12D1FB6873
:102514001B6B1A88FB681B68DA60FB681B6B9A1CD0
:10252400FB681A63FB68DB8E9BB2013B9AB2FB68C3
:10253400DA8618E0FEF794FC0246FB69D31A3A687F
:102544009A4203D83B68B3F1FF3F02D13B68002BAA
:1025540009D1FB68012283F85120FB68002283F82B
:102564005020032382E0FB68DB8E9BB2002BC7D193
:1025740053E0FB685B68002B02D07B8B012B47D1B7
:10258400FB681A6BFB681B680C3312781A70FB68C3
:102594001B6B5A1CFB681A63FB68DB8E9BB2013B06
:1025A4009AB2FB68DA8633E0FB681B689B6803F029
:1025B4000203022B13D1FB681A6BFB681B680C33F4
:1025C40012781A70FB681B6B5A1CFB681A63FB6851
:1025D400DB8E9BB2013B9AB2FB68DA8618E0FEF709
:1025E4003FFC0246FB69D31A3A689A4203D83B6817
:1025F400B3F1FF3F02D13B68002B09D1FB680122F4
:1026040083F85120FB68002283F8502003232DE037
:10261400FB68DB8E9BB2002BC6D1FA693968F86877
:1026240000F0B0F80346002B02D0FB6820225A6564
:10263400FB689B68002B0AD100237B61FB681B6845
:10264400DB687B61FB681B689B687B617B69FB685B
:10265400012283F85120FB68002283F85020FB6894
:102664005B6D002B01D0012300E0002318462037C6
:10267400BD4680BD80B588B000AFF860B9603B60EE
:102684001346FB71FEF7ECFB0246BB6A9B1A3A68E1
:102694001344FB61FEF7E4FBB861394B1B685B0133
:1026A4001B0DFA6902FB03F37B6154E03B68B3F151
:1026B400FF3F50D0FEF7D4FB0246BB69D31AFA6938
:1026C4009A4202D9FB69002B3DD1FB681B685A680A
:1026D400FB681B6822F0E0025A60FB685B68B3F594
:1026E400827F11D1FB689B68B3F5004F04D0FB686F
:1026F4009B68B3F5806F07D1FB681B681A68FB6899
:102704001B6822F040021A60FB689B6AB3F5005F05
:102714000FD1FB681B681A68FB681B6822F400521F
:102724001A60FB681B681A68FB681B6842F4005255
:102734001A60FB68012283F85120FB68002283F8A9
:102744005020032317E07B69002B01D10023FB6198
:102754007B69013B7B61FB681B689A68BB6813401B
:10276400BA689A420CBF01230023DBB21A46FB79F4
:102774009A429BD1002318462037BD4680BD00BF36
:102784000000002080B586B002AFF860B9607A60BE
:102794007B680093BB6801220221F868FFF76AFF97
:1027A4000346002B07D0FB685B6D43F02002FB68F7
:1027B4005A65032313E07B680093BB6800228021E1
:1027C400F868FFF757FF0346002B07D0FB685B6DE3
:1027D40043F02002FB685A65032300E000231846F7
:1027E4001037BD4680BD80B582B000AF78607B688D
:1027F400002B01D1012341E07B6893F83D30DBB22B
:10280400002B06D17B68002283F83C207868FEF711
:10281400D5F97B68022283F83D207B681A687B68BF
:1028240004331946104600F069FA7B68012283F8E4
:1028340046207B68012283F83E207B68012283F8CE
:102844003F207B68012283F840207B68012283F8C3
:1028540041207B68012283F842207B68012283F8AF
:1028640043207B68012283F844207B68012283F89B
:1028740045207B68012283F83D2000231846083751
:10288400BD4680BD80B485B000AF78607B6893F8A6
:102894003D30DBB2012B01D0012344E07B680222EE
:1028A40083F83D207B681B68DA687B681B6842F00C
:1028B4000102DA607B681B681D4A934218D07B686A
:1028C4001B681C4A934213D07B681B68B3F1804F8A
:1028D4000ED07B681B68184A934209D07B681B683A
:1028E400164A934204D07B681B68154A934211D15F
:1028F4007B681B689B6803F00703FB60FB68062B7F
:1029040010D07B681B681A687B681B6842F0010260
:102914001A6007E07B681B681A687B681B6842F0D2
:1029240001021A60002318461437BD4680BC704764
:10293400002C014000340140000400400008004025
:10294400000C004080B584B000AF78607B681B68E1
:10295400DB68FB607B681B681B69BB60BB6803F0BA
:102964000203002B20D0FB6803F00203002B1BD0D2
:102974007B681B686FF002021A617B6801221A7778
:102984007B681B689B6903F00303002B03D0786802
:1029940000F098F905E0786800F08BF9786800F0A9
:1029A4009AF97B6800221A77BB6803F00403002BB2
:1029B40020D0FB6803F00403002B1BD07B681B684A
:1029C4006FF004021A617B6802221A777B681B6825
:1029D4009B6903F44073002B03D0786800F072F90C
:1029E40005E0786800F065F9786800F074F97B68B0
:1029F40000221A77BB6803F00803002B20D0FB6881
:102A040003F00803002B1BD07B681B686FF00802DF
:102A14001A617B6804221A777B681B68DB6903F000
:102A24000303002B03D0786800F04CF905E07868C4
:102A340000F03FF9786800F04EF97B6800221A77BD
:102A4400BB6803F01003002B20D0FB6803F01003D5
:102A5400002B1BD07B681B686FF010021A617B6827
:102A640008221A777B681B68DB6903F44073002B28
:102A740003D0786800F026F905E0786800F019F9C9
:102A8400786800F028F97B6800221A77BB6803F0A5
:102A94000103002B0CD0FB6803F00103002B07D0CB
:102AA4007B681B686FF001021A617868FDF7D6FE37
:102AB400BB6803F08003002B0CD0FB6803F0800399
:102AC400002B07D07B681B686FF080021A6178685E
:102AD40000F0A5FABB6803F04003002B0CD0FB68A0
:102AE40003F04003002B07D07B681B686FF04002A3
:102AF4001A61786800F0F8F8BB6803F02003002B33
:102B04000CD0FB6803F02003002B07D07B681B6804
:102B14006FF020021A61786800F078FA00BF10376D
:102B2400BD4680BD80B584B000AF786039600023B5
:102B3400FB737B6893F83C30012B01D10223B4E092
:102B44007B68012283F83C207B68022283F83D20C5
:102B54007B681B689B68BB60BB6823F07703BB6022
:102B6400BB6823F47F43BB607B681B68BA689A60C8
:102B74003B681B68B3F5005F3ED0B3F5005F00F21D
:102B84008780B3F5805F00F08680B3F5805F7FD8DF
:102B9400702B1AD0702B7BD8602B50D0602B77D839
:102BA400502B3CD0502B73D8402B58D0402B6FD88F
:102BB400302B64D0302B6BD8202B60D0202B67D8DF
:102BC400002B5CD0102B5AD062E07B6818683B68FD
:102BD40099683B685A683B68DB6800F08CF97B684D
:102BE4001B689B68BB60BB6843F07703BB607B6872
:102BF4001B68BA689A604FE07B6818683B689968FC
:102C04003B685A683B68DB6800F075F97B681B68B1
:102C14009A687B681B6842F480429A603CE07B6857
:102C240018683B6859683B68DB681A4600F0ECF8A2
:102C34007B681B685021184600F043F92CE07B6840
:102C440018683B6859683B68DB681A4600F00AF963
:102C54007B681B686021184600F033F91CE07B6830
:102C640018683B6859683B68DB681A4600F0CCF882
:102C74007B681B684021184600F023F90CE07B6850
:102C84001A683B681B681946104600F01AF903E0FD
:102C94000123FB7300E000BF7B68012283F83D2021
:102CA4007B68002283F83C20FB7B18461037BD4626
:102CB40080BD80B483B000AF786000BF0C37BD46E0
:102CC40080BC704780B483B000AF786000BF0C371D
:102CD400BD4680BC704780B483B000AF786000BF4D
:102CE4000C37BD4680BC704780B483B000AF7860B9
:102CF40000BF0C37BD4680BC7047000080B485B06F
:102D040000AF786039607B681B68FB607B68394A78
:102D1400934213D07B68384A93420FD07B68B3F157
:102D2400804F0BD07B68354A934207D07B68344A86
:102D3400934203D07B68334A934208D1FB6823F063
:102D44007003FB603B685B68FA681343FB607B6855
:102D5400284A934213D07B68274A93420FD07B685A
:102D6400B3F1804F0BD07B68244A934207D07B6831
:102D7400234A934203D07B68224A934208D1FB68DA
:102D840023F44073FB603B68DB68FA681343FB6021
:102D9400FB6823F080023B685B691343FB607B683C
:102DA400FA681A603B689A687B68DA623B681A685A
:102DB4007B689A627B680F4A934203D07B680E4A11
:102DC400934203D13B681A697B681A637B680122CA
:102DD4005A617B681B6903F00103002B05D07B68F3
:102DE4001B6923F001027B681A6100BF1437BD46DA
:102DF40080BC7047002C01400034014000040040B6
:102E040000080040000C004080B487B000AFF860B8
:102E1400B9607A60FB681B6A7B61FB681B6A23F0FC
:102E24000102FB681A62FB689B693B613B6923F002
:102E3400F0033B617B681B013A6913433B617B6987
:102E440023F00A037B617A69BB6813437B61FB68E7
:102E54003A699A61FB687A691A6200BF1C37BD46F9
:102E640080BC704780B487B000AFF860B9607A6006
:102E7400FB681B6A7B61FB681B6A23F01002FB681A
:102E84001A62FB689B693B613B6923F470433B61B5
:102E94007B681B033A6913433B617B6923F0A003FE
:102EA4007B61BB681B017A6913437B61FB683A69E8
:102EB4009A61FB687A691A6200BF1C37BD4680BC00
:102EC400704780B485B000AF786039607B689B68D8
:102ED400FB60FB6823F07003FB603A68FB681343F4
:102EE40043F00703FB607B68FA689A6000BF1437FD
:102EF400BD4680BC704780B487B000AFF860B9604D
:102F04007A603B60FB689B687B617B6923F47F4349
:102F14007B613B681A027B681A43BB6813437A6976
:102F240013437B61FB687A699A6000BF1C37BD4616
:102F340080BC704780B485B000AF786039607B682E
:102F440093F83C30012B01D1022350E07B6801222D
:102F540083F83C207B68022283F83D207B681B6851
:102F64005B68FB607B681B689B68BB60FB6823F045
:102F74007003FB603B681B68FA681343FB607B6863
:102F84001B68FA685A607B681B681B4A934218D016
:102F94007B681B68194A934213D07B681B68B3F1A2
:102FA400804F0ED07B681B68154A934209D07B681A
:102FB4001B68144A934204D07B681B68124A9342EC
:102FC4000CD1BB6823F08003BB603B685B68BA68C4
:102FD4001343BB607B681B68BA689A607B680122F4
:102FE40083F83D207B68002283F83C2000231846A8
:102FF4001437BD4680BC7047002C014000340140AA
:103004000004004000080040000C004080B483B07D
:1030140000AF786000BF0C37BD4680BC704780B4F9
:1030240083B000AF786000BF0C37BD4680BC7047EA
:1030340080B582B000AF78607B68002B01D101239A
:1030440042E07B6893F84130DBB2002B06D17B6809
:10305400002283F840207868FDF7FCFD7B68242279
:1030640083F841207B681B68DA687B681B6822F45C
:103074000052DA60786800F009FA7B681B681A6904
:103084007B681B6822F490421A617B681B685A694A
:103094007B681B6822F02A025A617B681B68DA6825
:1030A4007B681B6842F40052DA607B6800225A6431
:1030B4007B68202283F841207B68202283F8422009
:1030C4007B6800225A63002318460837BD4680BD3A
:1030D40080B58AB002AFF860B9603B601346FB80EC
:1030E40000237B61FB6893F84130DBB2202B75D160
:1030F400BB68002B02D0FB88002B01D101236EE0BA
:10310400FB6800225A64FB68212283F84120FDF702
:10311400A7FE7861FB68FA889A84FB68FA88DA84E7
:10312400FB689B68B3F5805F08D1FB681B69002BC3
:1031340004D10023FB61BB68BB6103E0BB68FB6196
:103144000023BB612EE03B6800937B690022802151
:10315400F86800F0DFF80346002B05D0FB68202256
:1031640083F8412003233AE0FB69002B0BD1BB69B0
:103174001B881A46FB681B68C2F308025A60BB69C5
:103184000233BB6107E0FB691A78FB681B685A606D
:10319400FB690133FB61FB68DB8C9BB2013B9AB298
:1031A400FB68DA84FB68DB8C9BB2002BCBD13B68D9
:1031B40000937B6900224021F86800F0ABF80346D5
:1031C400002B05D0FB68202283F84120032306E06E
:1031D400FB68202283F84120002300E002231846E4
:1031E4002037BD4680BD80B58AB002AFF860B960B3
:1031F4003B601346FB8000237B61FB6893F84230FD
:10320400DBB2202B40F08180BB68002B02D0FB880E
:10321400002B01D1012379E0FB6800225A64FB688A
:10322400222283F84220FB6800221A63FDF718FE6D
:103234007861FB68FA889A85FB68FA88DA85FB6806
:103244009B68B3F5805F08D1FB681B69002B04D130
:103254000023FB61BB68BB6103E0BB68FB61002327
:10326400BB6147E03B6800937B6900222021F8683A
:1032740000F050F80346002B05D0FB68202283F8A9
:103284004220032342E0FB69002B0CD1FB681B683E
:103294005B689BB2C3F308039AB2BB691A80BB692B
:1032A4000233BB611FE0FB689B68B3F5805F07D006
:1032B400FB689B68002B0AD1FB681B69002B06D1B5
:1032C400FB681B685B68DAB2FB691A7008E0FB688C
:1032D4001B685B68DBB203F07F03DAB2FB691A7028
:1032E400FB690133FB61FB68DB8D9BB2013B9AB246
:1032F400FB68DA85FB68DB8D9BB2002BB2D1FB68DF
:10330400202283F84220002300E0022318462037BD
:10331400BD4680BD80B586B000AFF860B9603B6043
:103324001346FB713BE03B6AB3F1FF3F37D0FDF737
:1033340097FD02463B68D31A3A6A9A4202D33B6A23
:10334400002B01D103233AE0FB681B68DB6803F020
:103354000403002B23D0BB68802B20D0BB68402BF8
:103364001DD0FB681B681B6803F00803082B16D1EB
:1033740000237B61FB681B681B687B61FB681B681F
:103384005B687B617B69F86800F01DF8FB680822C4
:103394005A64FB68002283F8402001230FE0FB6895
:1033A4001B681A68BB681340BA689A420CBF0123B1
:1033B4000023DBB21A46FB799A42B4D000231846A4
:1033C4001837BD4680BD80B495B000AF78607B6887
:1033D4001B680C337B637B6B53E8003F3B633B6BA5
:1033E40023F49073FB647B681B680C33FA6C3A64B7
:1033F400FB63F96B3A6C41E80023BB63BB6B002BA6
:10340400E5D17B681B6814333B623B6A53E8003F99
:10341400FB61FB6923F00103BB647B681B68143305
:10342400BA6CFA62BB62B96AFA6A41E800237B6249
:103434007B6A002BE5D17B681B6B012B19D17B6860
:103444001B680C33FB60FB6853E8003FBB60BB6840
:1034540023F010037B647B681B680C337A6CBA61BD
:103464007B617969BA6941E800233B613B69002BC0
:10347400E5D17B68202283F842207B6800221A630E
:1034840000BF5437BD4680BC7047000080B584B08F
:1034940000AF78607B681B681B6923F440517B682C
:1034A400DA687B681B680A431A617B689A687B68E0
:1034B4001B691A437B685B691343BB607B681B68A9
:1034C400DB6823F4B05323F00C037A681268B968FC
:1034D4000B43D3607B681B685B6923F440717B6892
:1034E4009A697B681B680A435A617B681B682C4A8B
:1034F400934203D1FEF70EFEF86002E0FEF7F6FDFC
:10350400F860FA6813469B0013449A001A447B68D7
:103514005B689B00B2FBF3F3224AA2FB03235B0923
:103524001901FA6813469B0013449A001A447B68F5
:103534005B689B00B2FBF3F21A4BA3FB02035B092B
:10354400642000FB03F3D31A1B013233154AA2FB98
:1035540003235B0903F0F0031944FA6813469B0044
:1035640013449A001A447B685B689B00B2FBF3F235
:103574000C4BA3FB02035B09642000FB03F3D31A87
:103584001B013233074AA2FB03235B0903F00F023A
:103594007B681B680A449A6000BF1037BD4680BD33
:1035A400003801401F85EB5103460244934200D189
:1035B400704703F8011BF9E770B500260C4D0D4C5C
:1035C400641BA410A64209D100F01AF800260A4D83
:1035D4000A4C641BA410A64205D170BD55F8043BE7
:1035E40098470136EEE755F8043B98470136F2E771
:1035F40084360008843600088436000888360008BB
:10360400F8B500BFF8BC08BC9E467047F8B500BFCB
:08361400F8BC08BC9E4670479B
:10361C000D0A456E7465722061206E756D6265725F
:10362C003A20000000BF008600DB00CF00E600ED72
:10363C0000FD008700FF00EF00000000000000000C
:10364C000000000000000000000000000102030464
:10365C000607080900000000010203040203040528
:10366C00060708090A0B0C0D0E0F101001020000C2
:08367C00A8CBFF7F0100000054
:04368400090200082F
:04368800E501000850
:0C368C0000127A00100000000100000095
:0400000508000D6979
:00000001FF
