:020000040800F2
:1000000000C00020351E00082D1D00082F1D00080F
:10001000311D0008331D0008351D000800000000D8
:10002000000000000000000000000000371D000874
:10003000391D0008000000003B1D00083D1D0008A0
:100040007D1E00087D1E00087D1E00087D1E000824
:100050007D1E00087D1E00087D1E00087D1E000814
:100060007D1E00087D1E00087D1E0008451D00083D
:100070007D1E00087D1E00087D1E00087D1E0008F4
:100080007D1E00087D1E00087D1E00087D1E0008E4
:100090007D1E00087D1E00087D1E00087D1E0008D4
:1000A0007D1E00087D1E00087D1E00087D1E0008C4
:1000B000551D00087D1E00087D1E00087D1E0008DD
:1000C0007D1E00087D1E00087D1E00087D1E0008A4
:1000D0007D1E00087D1E00087D1E00087D1E000894
:1000E0007D1E00087D1E00087D1E00087D1E000884
:1000F0007D1E00087D1E00087D1E00087D1E000874
:100100007D1E00087D1E00087D1E00087D1E000863
:100110007D1E00087D1E00087D1E00087D1E000853
:100120007D1E00087D1E00087D1E0008651D00085C
:1001300000000000000000000000000000000000BF
:1001400000000000000000000000000000000000AF
:10015000000000000000000000000000000000009F
:10016000000000000000000000000000000000008F
:10017000000000000000000000000000000000007F
:10018000000000000000000000000000000000006F
:10019000000000000000000000000000000000005F
:1001A000000000000000000000000000000000004F
:1001B000000000000000000000000000000000003F
:1001C000000000000000000000000000000000002F
:1001D000000000000000000000000000000000001F
:0401E0005FF8E0F1F3
:1001E40010B5054C237833B9044B13B10448AFF36D
:1001F40000800123237010BD68000020000000006F
:100204003857000808B5034B1BB103490348AFF343
:10021400008008BD000000006C0000203857000872
:1002240080F0004002E000BF81F0004142001FBFA7
:100234005FEA410392EA030F7FEA226C7FEA236CB0
:100244006AD04FEA1262D2EB1363C1BFD2184140A5
:1002540048404140B8BF5B42192B88BF704710F03B
:10026400004F40F4000020F07F4018BF404211F0DE
:10027400004F41F4000121F07F4118BF494292EA46
:10028400030F3FD0A2F1010241FA03FC10EB0C0072
:10029400C3F1200301FA03F100F0004302D54942FF
:1002A40060EB4000B0F5000F13D3B0F1807F06D3AC
:1002B40040084FEA310102F10102FE2A51D2B1F1A4
:1002C400004F40EBC25008BF20F0010040EA030099
:1002D4007047490040EB0000013A28BFB0F5000F19
:1002E400EDD2B0FA80FCACF1080CB2EB0C0200FACF
:1002F4000CF0AABF00EBC25052421843BCBFD0401E
:100304001843704792F0000F81F4000106BF80F497
:1003140000000132013BB5E74FEA41037FEA226C5A
:1003240018BF7FEA236C21D092EA030F04D092F025
:10033400000F08BF0846704790EA010F1CBF002059
:10034400704712F07F4F04D1400028BF40F00040B6
:10035400704712F100723CBF00F50000704700F0D6
:10036400004343F0FE4040F4000070477FEA2262FD
:1003740016BF08467FEA23630146420206BF5FEACE
:10038400412390EA010F40F4800070474FF00003CE
:1003940004E000BF10F0004348BF40425FEA000C95
:1003A40008BF704743F0964301464FF000001CE03D
:1003B40050EA010208BF70474FF000030AE000BF93
:1003C40050EA010208BF704711F0004302D54042D1
:1003D40061EB41015FEA010C02BF84460146002043
:1003E40043F0B64308BFA3F18053A3F50003BCFA5E
:1003F4008CF2083AA3EBC25310DB01FA02FC63440B
:1004040000FA02FCC2F12002BCF1004F20FA02F211
:1004140043EB020008BF20F00100704702F1200204
:1004240001FA02FCC2F1200250EA4C0021FA02F265
:1004340043EB020008BF20EADC7070474FF0FF0C6A
:100444001CEAD0521EBF1CEAD15392EA0C0F93EA65
:100454000C0F6FD01A4480EA010C400218BF5FEA07
:1004640041211ED04FF0006343EA501043EA51117A
:10047400A0FB01310CF00040B1F5000F3EBF490074
:1004840041EAD3715B0040EA010062F17F02FD2A78
:100494001DD8B3F1004F40EBC25008BF20F001005B
:1004A400704790F0000F0CF0004C08BF49024CEA72
:1004B400502040EA51207F3AC2BFD2F1FF0340EA04
:1004C400C250704740F400004FF00003013A5DDC75
:1004D40012F1190FDCBF00F000407047C2F10002B6
:1004E400410021FA02F1C2F1200200FA02FC5FEAA3
:1004F400310040F1000053EA4C0308BF20EADC70ED
:10050400704792F0000F00F0004C02BF400010F45E
:10051400000F013AF9D040EA0C0093F0000F01F00B
:10052400004C02BF490011F4000F013BF9D041EA2D
:100534000C018FE70CEAD15392EA0C0F18BF93EA2F
:100544000C0F0AD030F0004C18BF31F0004CD8D159
:1005540080EA010000F00040704790F0000F17BFE0
:1005640090F0004F084691F0000F91F0004F14D026
:1005740092EA0C0F01D142020FD193EA0C0F03D17E
:100584004B0218BF084608D180EA010000F0004081
:1005940040F0FE4040F40000704740F0FE4040F45C
:1005A400400070474FF0FF0C1CEAD0521EBF1CEAFB
:1005B400D15392EA0C0F93EA0C0F69D0A2EB030219
:1005C40080EA010C49024FEA402037D04FF08053B3
:1005D40043EA111143EA10130CF000408B4238BF78
:1005E4005B0042F17D024FF4000C8B4224BF5B1A86
:1005F40040EA0C00B3EB510F24BFA3EB510340EAD4
:100604005C00B3EB910F24BFA3EB910340EA9C0081
:10061400B3EBD10F24BFA3EBD10340EADC001B01F1
:1006240018BF5FEA1C1CE0D1FD2A3FF650AF8B4295
:1006340040EBC25008BF20F0010070470CF0004CA2
:100644004CEA50207F32C2BFD2F1FF0340EAC250CD
:10065400704740F400004FF00003013A37E792F08E
:10066400000F00F0004C02BF400010F4000F013AEC
:10067400F9D040EA0C0093F0000F01F0004C02BFE7
:10068400490011F4000F013BF9D041EA0C0195E750
:100694000CEAD15392EA0C0F08D142027FF47DAFE9
:1006A40093EA0C0F7FF470AF084676E793EA0C0FD9
:1006B40004D14B023FF44CAF08466EE730F0004CD7
:1006C40018BF31F0004CCAD130F000427FF45CAF67
:1006D40031F000437FF43CAF5FE700BF4FF0FF3CD5
:1006E40006E000BF4FF0010C02E000BF4FF0010C28
:1006F4004DF804CD4FEA40024FEA41037FEA226CF1
:1007040018BF7FEA236C11D001B052EA530C18BF12
:1007140090EA010F58BFB2EB030088BFC81738BF77
:100724006FEAE17018BF40F0010070477FEA226C65
:1007340002D15FEA402C05D17FEA236CE4D15FEA61
:10074400412CE1D05DF8040B704700BF8446084695
:100754006146FFE70FB5FFF7C9FF002848BF10F156
:10076400000F0FBD4DF808EDFFF7F4FF0CBF01209B
:1007740000205DF808FB00BF4DF808EDFFF7EAFF25
:1007840034BF012000205DF808FB00BF4DF808EDE0
:10079400FFF7E0FF94BF012000205DF808FB00BFD5
:1007A4004DF808EDFFF7D2FF94BF012000205DF85B
:1007B40008FB00BF4DF808EDFFF7C8FF34BF012068
:1007C40000205DF808FB00BF4FEA4002B2F1FE4F83
:1007D4000FD34FF09E03B3EB12620DD94FEA0023FF
:1007E40043F0004310F0004F23FA02F018BF4042D8
:1007F40070474FF00000704712F1610F01D14202BF
:1008040005D110F0004008BF6FF0004070474FF072
:100814000000704742000ED2B2F1FE4F0BD34FF0EE
:100824009E03B3EB126209D44FEA002343F0004362
:1008340023FA02F070474FF00000704712F1610F85
:1008440001D1420202D14FF0FF3070474FF0000057
:10085400704700BF53B94AB9002908BF00281CBF1C
:100864004FF0FF314FF0FF3000F0D6BAADF1080C75
:100874006DE904CE00F026F8DDF804E0DDE902239A
:1008840004B07047D0B500F02DFC00220B4B064697
:100894000F4600F097F900F07DFC044600F000FCE0
:1008A4000022074B00F08EF902460B4630463946CB
:1008B40000F0B8FA00F06EFC2146D0BD0000F03D17
:1008C4000000F0412DE9F047089D8E460446884615
:1008D400002B4AD18A42174662D9B2FA82F64EB147
:1008E400C6F1200301FA06F820FA03F3B74043EAFD
:1008F4000808B4404FEA174EB8FBFEF11FFA87FC14
:100904000EFB118801FB0CF2230C43EA08439A42C4
:1009140009D9FB1801F1FF3080F0EB809A4240F2D4
:10092400E88002393B449A1AB2FBFEF00EFB102217
:1009340000FB0CFCA3B243EA02439C4509D9FB1813
:1009440000F1FF3280F0D7809C4540F2D4803B44D4
:10095400023840EA01400021A3EB0C031DB1002240
:10096400F340C5E90032BDE8F0878B4205D90DB1EB
:10097400C5E9000100210846F5E7B3FA83F100292F
:1009840046D1734502D3824200F20881841A6EEB89
:10099400030201209046002DE5D0C5E90048E2E7B6
:1009A400002A00F09180B2FA82F6002E40F0A58071
:1009B4008A1A0121030C4FEA174E80B2BCB2B2FB73
:1009C400FEFC0EFB1C2243EA024304FB0CF29A4297
:1009D40007D9FB180CF1FF3802D29A4200F2E380E7
:1009E400C4469B1AB3FBFEF20EFB123302FB04F463
:1009F40040EA03439C4207D9FB1802F1FF3002D2BC
:100A04009C4200F2CD8002461B1B42EA0C40A5E743
:100A1400C1F120068B4022FA06F71F432EFA06FA8C
:100A24004FEA1749BAFBF9F80EFA01FE20FA06F369
:100A340009FB18AA1FFA87FC43EA0E0300FA01FE19
:100A440008FB0CF01C0C44EA0A44A04202FA01F22E
:100A54000AD93C1908F1FF3A80F09E80A04240F286
:100A64009B80A8F102083C44241A98B2B4FBF9F321
:100A740009FB134403FB0CFC40EA0444A44509D9D4
:100A84003C1903F1FF3080F08580A44540F2828058
:100A9400023B3C4443EA0840A4EB0C04A0FB028C58
:100AA40064454346E14664D361D05DB1BEEB0302C5
:100AB40064EB090404FA06F622FA01F31E43CC405F
:100AC400C5E9006400214EE7B1FBF2FC010C41EAE8
:100AD4000E4180B240EA01423B46B1FBF7F1384691
:100AE4003C46B846BE462026A2EB080241EA0C4129
:100AF40065E7014617E710462BE7C6F120012EFAF9
:100B040001FCB7400EFA06FE20FA01F141EA0E019B
:100B14004FEA174EBCFBFEF8BCB20EFB18CC08FB28
:100B240004F90A0C42EA0C42B04091454FEA1043E2
:100B340080B23ED9BA1808F1FF3C01D291451FD8C2
:100B4400A2EB0902B2FBFEF909FB04F80EFB192A19
:100B54008AB242EA0A42424529D2BA1809F1FF315F
:100B6400C2D24245C0D2A9F102013A44BCE7C6450B
:100B74009BD2B8EB02036CEB070C0138E14694E717
:100B8400A7EB09094A44B2FBFEF9A8F1020C09FBE0
:100B940004F8DBE703467DE7D04665E70846FAE656
:100BA4003B44023A30E7ACF1020C3B4419E74946B6
:100BB4009AE7A2EB0902B2FBFEF9C44609FB04F86A
:100BC400C4E700BF70B54FF0FF0C4CF4E06C1CEAB6
:100BD40011541DBF1CEA135594EA0C0F95EA0C0F2F
:100BE40000F0DEF82C4481EA030621EA4C5123EAA2
:100BF4004C5350EA013518BF52EA033541F48011D1
:100C040043F4801338D0A0FB02CE4FF00005E1FB83
:100C140002E506F00042E0FB03E54FF00006E1FBCD
:100C240003569CF0000F18BF4EF0010EA4F1FF0410
:100C3400B6F5007F64F5407404D25FEA4E0E6D4150
:100C440046EB060642EAC62141EA55514FEAC52061
:100C540040EA5E504FEACE2EB4F1FD0C88BFBCF5DD
:100C6400E06F1ED8BEF1004F08BF5FEA500E50F18E
:100C7400000041EB045170BD06F0004646EA010154
:100C840040EA020081EA0301B4EB5C04C2BFD4EB86
:100C94000C0541EA045170BD41F480114FF0000E7F
:100CA400013C00F3AB8014F1360FDEBF002001F0ED
:100CB400004170BDC4F10004203C35DA0C341BDC67
:100CC40004F11404C4F1200500FA05F320FA04F039
:100CD40001FA05F240EA020001F0004221F000416D
:100CE40010EBD37021FA04F642EB06015EEA430EE0
:100CF40008BF20EAD37070BDC4F10C04C4F1200510
:100D040000FA04F320FA05F001FA04F240EA0200C2
:100D140001F0004110EBD37041F100015EEA430E93
:100D240008BF20EAD37070BDC4F1200500FA05F2B3
:100D34004EEA020E20FA04F301FA05F243EA020332
:100D440021FA04F001F0004121FA04F220EA020041
:100D540000EBD3705EEA430E08BF20EAD37070BD87
:100D640094F0000F0FD101F00046400041EB010167
:100D740011F4801F08BF013CF7D041EA060195F049
:100D8400000F18BF704703F00046520043EB030303
:100D940013F4801F08BF013DF7D043EA06037047F0
:100DA40094EA0C0F0CEA135518BF95EA0C0F0CD0FB
:100DB40050EA410618BF52EA4306D1D181EA030141
:100DC40001F000414FF0000070BD50EA410606BF3B
:100DD4001046194652EA430619D094EA0C0F02D180
:100DE40050EA013613D195EA0C0F05D152EA0336C5
:100DF4001CBF104619460AD181EA030101F00041E3
:100E040041F0FE4141F470014FF0000070BD41F02B
:100E1400FE4141F4780170BD704700BF81F000418C
:100E240002E000BF83F0004330B54FEA41044FEACB
:100E3400430594EA050F08BF90EA020F1FBF54EA66
:100E4400000C55EA020C7FEA645C7FEA655C00F002
:100E5400E2804FEA5454D4EB5555B8BF6D420CDDD3
:100E64002C4480EA020281EA030382EA000083EA56
:100E7400010180EA020281EA0303362D88BF30BDF6
:100E840011F0004F4FEA01314FF4801C4CEA11314C
:100E940002D0404261EB410113F0004F4FEA0333AB
:100EA4004CEA133302D0524263EB430394EA050F36
:100EB40000F0A780A4F10104D5F1200E0DDB02FAA5
:100EC4000EFC22FA05F2801841F1000103FA0EF239
:100ED400801843FA05F359410EE0A5F120050EF1FF
:100EE400200E012A03FA0EFC28BF4CF0020C43FA30
:100EF40005F3C01851EBE37101F0004507D54FF03D
:100F0400000EDCF1000C7EEB00006EEB0101B1F58C
:100F1400801F1BD3B1F5001F0CD349085FEA3000D2
:100F24004FEA3C0C04F101044FEA445212F5800FDD
:100F340080F09A80BCF1004F08BF5FEA500C50F17A
:100F4400000041EB045141EA050130BD5FEA4C0C5D
:100F5400404141EB0101013C28BFB1F5801FE9D2BA
:100F640091F0000F04BF01460020B1FA81F308BFDD
:100F74002033A3F10B03B3F120020CDA0C3208DDA9
:100F840002F1140CC2F10C0201FA0CF021FA02F184
:100F94000CE002F11402D8BFC2F1200C01FA02F1F4
:100FA40020FA0CFCDCBF41EA0C019040E41AA2BF19
:100FB40001EB0451294330BD6FEA04041F3C1CDAE1
:100FC4000C340EDC04F11404C4F1200220FA04F001
:100FD40001FA02F340EA030021FA04F345EA0301AB
:100FE40030BDC4F10C04C4F1200220FA02F001FA6D
:100FF40004F340EA0300294630BD21FA04F02946EF
:1010040030BD94F0000F83F4801306BF81F4801187
:101014000134013D4EE77FEA645C18BF7FEA655CFA
:1010240029D094EA050F08BF90EA020F05D054EACC
:10103400000C04BF1946104630BD91EA030F1EBFD1
:101044000021002030BD5FEA545C05D140004941D5
:1010540028BF41F0004130BD14F580043CBF01F5C8
:10106400801130BD01F0004545F0FE4141F47001AE
:101074004FF0000030BD7FEA645C1ABF1946104689
:101084007FEA655C1CBF0B46024650EA013406BF8A
:1010940052EA033591EA030F41F4002130BD00BF49
:1010A40090F0000F04BF0021704730B54FF4806406
:1010B40004F132044FF000054FF0000150E700BF87
:1010C40090F0000F04BF0021704730B54FF48064E6
:1010D40004F1320410F0004548BF40424FF00001D3
:1010E4003EE700BF42004FEAE2014FEA31014FEA16
:1010F40002701FBF12F07F4393F07F4F81F0605165
:10110400704732F07F4208BF704793F07F4F04BFAF
:1011140041F40021704730B54FF4607401F000458C
:1011240021F000411CE700BF50EA010208BF7047EC
:1011340030B54FF000050AE050EA010208BF7047DD
:1011440030B511F0004502D5404261EB41014FF446
:10115400806404F132045FEA915C3FF4D8AE4FF04E
:1011640003025FEADC0C18BF03325FEADC0C18BF31
:10117400033202EBDC02C2F1200300FA03FC20FA82
:1011840002F001FA03FE40EA0E0021FA02F11444CF
:10119400BDE600BF4A0011D212F5001211D20DD5DE
:1011A4006FF47873B3EB62520ED44FEAC12343F069
:1011B400004343EA505323FA02F070474FF0000013
:1011C400704750EA013002D14FF0FF3070474FF0C2
:1011D400000070472DE9F04188B000240494059480
:1011E40006940794384B9A6942F010029A619A69FE
:1011F40002F010020092009A9A6942F020029A6169
:101204009A6902F020020192019A9A6942F004025A
:101214009A619A6902F004020292029A9A6942F06F
:1012240008029A619B6903F008030393039B274D0B
:10123400224648F24001284601F06AFC01224FF49C
:101244006071284601F064FC4FF4505304930594F4
:10125400069404A9284601F03FFB4FF4004304938D
:101264000126059602270697079704A9284601F048
:1012740033FB4FF08008CDF810800594069404A940
:10128400134801F029FB402304930596069407971D
:1012940004A9284601F020FBCDF810800596069499
:1012A4000323079304A9284601F016FB4FF4407367
:1012B400049305960694079604A9284601F00CFBAE
:1012C40008B0BDE8F08100BF00100240000C0140EE
:1012D4000010014000B583B0124B5A6942F002027B
:1012E4005A615A6902F002020092009A5A6942F065
:1012F40001025A615B6903F001030193019B00221F
:1013040011460B2000F0BEFF0B2000F0CBFF0022A3
:1013140011463B2000F0B6FF3B2000F0C3FF03B0B2
:101324005DF804FB0010024008B50368B3F1804F78
:1013340000D008BD014800F00DFBFAE7840000204E
:1013440008B5044B93F8643803B108BD014800F0B4
:101354004AFBFAE78C00002008B5044B93F8643884
:1013640003B108BD014800F03EFBFAE78C00002001
:1013740072B6FEE700B585B0002301930293039390
:101384001348144A02608360037303754FF44022C8
:10139400C26143600123036100F09AFE98B90E4ACA
:1013A400536843F0E06343F48023536000230193C4
:1013B40001220292039301A9054800F0BDFD20B962
:1013C40005B05DF804FBFFF7D3FFFFF7D1FF00BFC3
:1013D400080D0020002401400000014000B583B046
:1013E4000023009301930B480B4B036000F07CFF38
:1013F40060B9042300930023019310226946054831
:1014040001F00CF820B903B05DF804FBFFF7B0FF5E
:10141400FFF7AEFFB00C00200074004008B50E4882
:101424000E4B03604FF482734360002383604FF4D8
:101434000062C260036143614FF400728261C36160
:101444000362436283620A23C36201F0A7FF00B907
:1014540008BDFFF78DFF00BF140C002000300140D1
:1014640008B50A480A4B03604FF4E1334360002394
:101474008360C36003610C2242618361C36102F033
:101484007DFB00B908BDFFF773FF00BFF40A00201D
:101494000038014000B587B00023029303930493FE
:1014A40005930093019314484FF0804202600C228C
:1014B4004260836040F26912C2600361836102F09A
:1014C4001BFA90B94FF48053029302A90A4802F020
:1014D4004BFA60B90023009301936946064802F071
:1014E400C3FA30B907B05DF804FBFFF741FFFFF71B
:1014F4003FFFFFF73DFF00BFCC0B002000B583B0DA
:101504000023009301930E480E4A026003224260B6
:1015140083607C22C260836102F0EEF958B9202313
:101524000093002301936946054802F09DFA20B90F
:1015340003B05DF804FBFFF71BFFFFF719FF00BFC3
:10154400840B00200010004000B587B000230293F4
:10155400039304930593009301931448144A02607F
:101564000322426083607C22C26003614361836121
:1015740002F0C2F998B94FF48053029302A90B48C0
:1015840002F0F2F968B9202300930023019369461D
:10159400064802F069FA30B907B05DF804FBFFF7BA
:1015A400E7FEFFF7E5FEFFF7E3FE00BF3C0B00207C
:1015B4000034014000B597B0282200210CA802F0A5
:1015C40050FC00230793089309930A930B93019308
:1015D4000293039304930593069302230C9301222D
:1015E40010921022119213934FF4801315930CA8A8
:1015F40001F0B4FAB0B90F23079302230893002132
:1016040009910A910B9107A801F0DAFC60B9022351
:1016140001930023039301A801F0AEFD30B917B084
:101624005DF804FBFFF7A4FEFFF7A2FEFFF7A0FEA0
:10163400F0B583B000F048FCFFF7BCFFFFF7CAFD2C
:10164400FFF748FEFFF796FEFFF7C8FEFFF7E6FE3A
:10165400FFF706FFFFF71EFFFFF750FFFFF774FFCA
:10166400164802F005F8164E304600F043F9154FBF
:10167400154C002500953B46144A2946204600F0A7
:1016840091F900954FF4807304F6660210213846F0
:1016940000F03CFE2221304600F03EF90C4B236161
:1016A4000C4B23612069FFF7B5F80146204600F092
:1016B400B7F84FF4C87000F02BFCFEE7CC0B002009
:1016C40084000020B00C00208C000020840B00203B
:1016D40000007A4400401C4670B5044690F81D385A
:1016E400DBB2042B23D8DFE803F0233A60769000C2
:1016F4002846FEF74FFE4649FEF7A0FE03F054FAD3
:101704004FF07C51FEF79AFE4FF07C51FEF78EFDB0
:101714004049FEF793FEFFF77DF880B205F1080318
:1017240004EB430398800135B5F5806FE0DB70BDB1
:101734000025F9E703F1080204EB420240F6FF71C9
:1017440091800133B3F5806FF1DAB3F5007FF1DAFC
:1017540003F1080204EB420200219180F1E7002327
:10176400F0E73046FFF756F880B205F1080304EBC2
:101774004303988028493046FEF756FD0646013556
:10178400B5F5806FD3DAB5F5007FEADA3046FFF7B6
:1017940041F880B205F1080304EB430398801E4925
:1017A4003046FEF743FD0646E9E700250026E7E755
:1017B4002846FEF7EFFD1949FEF740FEFFF72AF829
:1017C40080B205F1080304EB430398800135B5F5B5
:1017D400806FEDDBABE70025F9E702F0FFF9FEF7D8
:1017E400D9FD4FF04051FEF729FE0A49FEF726FEC7
:1017F400FFF710F880B205F1080304EB4303988067
:101804000135B5F5806FE8DB91E70025F9E700BF06
:10181400DB0FC93B00F07F4500F0FF4000F07F4044
:1018240038B504460D460846FEF7B0FD2061E06871
:10183400FFF728F802460B4600202946FFF70AF86E
:10184400C4F8180838BD0000F8B5044615460B68FE
:101854009B6A03600B68DB6A436001F06DFCFEF772
:1018640095FDA060184B2361A7682068FEF78EFDE4
:101874004FF07E51FEF7DAFC06466068FEF786FDFF
:101884004FF07E51FEF7D2FC01463046FEF7D6FDFE
:1018940001463846FEF786FEE06084F81D580025B0
:1018A400C4F81458C4F818580A2384F81C3820467D
:1018B400FFF712FF2069FEF7ADFF01462046FFF750
:1018C400AFFFC4F82058F8BD0080A643D0F818280C
:1018D400D0F814381344C0F81438D0F8143890F8F9
:1018E4001C28C2F12002D340083300EB4300808857
:1018F40080B2704708B5FF230370002383700F2361
:10190400437040F24D1343604FF48071014801F07D
:1019140005F908BD000C01400170704710B540780E
:101924004FF0FF330122084901EB4001074801F061
:1019340090FD074C8021204601F0F0F880212046DC
:1019440001F0ECF810BD00BF50570008140C002043
:10195400000C014038B50446114D4FF480712846FF
:1019640001F0DCF84FF40071284601F0D7F8A378B1
:10197400012B01D053B138BD237803F00F036370FA
:101984002046FFF7CBFF0023A370F4E723781B095D
:1019940063702046FFF7C2FF0123A370EBE700BF8B
:1019A400000C014080F8641801B1704738B5054651
:1019B4001446104601F05CFE9DF81020214628468E
:1019C400FFF742FF002408E02846FFF77FFF04F5F5
:1019D400866305EB4303D8800134FF2CF4DD002338
:1019E400A5F8663A38BD38B5054690F8643813B39F
:1019F40090F8643838BD2846FFF768FFB5F8663AB2
:101A04009BB2234403F5866305EB4303D88001347A
:101A14007F2CF0DDB5F8663A9BB280339BB2A5F813
:101A2400663AB5F8663A9BB2B3F5807FE2D10023FB
:101A3400A5F8663ADEE70024EAE7000082B00E4B20
:101A44009A6942F001029A619A6902F001020092D5
:101A5400009ADA6942F08052DA61DB6903F080535C
:101A64000193019B054A536823F0E06343F000733C
:101A7400536002B0704700BF0010024000000140F4
:101A840010B586B000230293039304930593026870
:101A94001F4B9A4201D006B010BD044603F56C43B7
:101AA4009A6942F400729A619A6902F4007200928F
:101AB400009A9A6942F004029A619B6903F0040354
:101AC4000193019B012302930323039302A9114869
:101AD40000F002FF1048114B036000234360836051
:101AE4008023C3604FF4807303614FF480634361C8
:101AF400202383614FF40053C36100F0F1FC18B953
:101B0400054B23625C62C6E7FFF732FCF8E700BFCF
:101B14000024014000080140C40C002008000240D9
:101B240030B587B0002302930393049305930268AE
:101B34001E4B9A4201D007B030BD044603F5CE33A4
:101B4400DA6942F00052DA61DA6902F00052009276
:101B5400009A9A6942F004029A619B6903F00403B3
:101B64000193019B202502950323039302A91048A6
:101B740000F0B2FE0F48104B0360102343600023B3
:101B840083608022C2604FF4807202614FF48062ED
:101B940042618561C36100F0A3FC18B9054BE360A1
:101BA4005C62C8E7FFF7E4FBF8E700BF007400409D
:101BB400000801406C0C00204404024000B587B0CA
:101BC400002302930393049305930268154B9A42EE
:101BD40002D007B05DF804FB03F560439A6942F450
:101BE40080529A619A6902F480520092009A9A692A
:101BF40042F008029A619B6903F008030193019B78
:101C040028230293022303930323059302A906487E
:101C140000F062FE054A536843F0E06343F00103B9
:101C24005360D6E700300140000C01400000014041
:101C340000B585B00368B3F1804F08D0194A9342C8
:101C440019D0194A934221D005B05DF804FB03F57D
:101C54000433DA6942F00102DA61DB6903F001035B
:101C64000193019B002211461C2000F00BFB1C2059
:101C740000F018FBE8E70D4BDA6942F01002DA6174
:101C8400DB6903F010030293029BDDE7074B9A69BB
:101C940042F400529A619B6903F400530393039B3B
:101CA400D2E700BF001000400034014000100240A1
:101CB40010B586B00023029303930493059302683E
:101CC400174B9A4201D006B010BD03F558439A69E8
:101CD40042F480429A619A6902F480420092009A26
:101CE4009A6942F004029A619B6903F00403019328
:101CF400019B4FF400730293022303930323059380
:101D0400084C02A9204600F0E7FD4FF480630293DB
:101D140000230393049302A9204600F0DDFDD2E7DB
:101D24000038014000080140FEE7FEE7FEE7FEE759
:101D3400FEE770477047704708B500F0D7F808BD54
:101D440008B5024800F052FC08BD00BFC40C0020D6
:101D540008B5024801F0CCFC08BD00BFCC0B002044
:101D640008B5024800F042FC08BD00BF6C0C00201E
:101D74000120704708B502F0C3F8162303604FF042
:101D8400FF3008BD08B54FF0FF31FFF7F3FFFEE762
:101D940070B50C461646002506E0AFF300802146D8
:101DA40001F8010B01350C46B542F6DB304670BD37
:101DB40070B50C461646002504E014F8010BAFF389
:101DC40000800135B542F8DB304670BD4FF0FF307E
:101DD40070474FF400534B60002070470120704758
:101DE4000020704710B503460C4A0D490D480068A1
:101DF40040B10C4800680344521A934206D8094A79
:101E0400136010BD0748084C0460F2E702F078F84C
:101E14000C2303604FF0FF30F3E700BF00C0002045
:101E240000040000380D0020900E002070470000D0
:101E3400FFF7FCFF0B480C490C4A002302E0D4587E
:101E4400C4500433C4188C42F9D3094A094C002302
:101E540001E013600432A242FBD302F057F8FFF70B
:101E6400E7FB704700000020680000205C5C00086D
:101E7400680000208C0E0020FEE7000010B5044628
:101E84000E4B1A784FF47A73B3FBF2F30C4A1068D2
:101E9400B0FBF3F000F014FA68B90F2C01D901205B
:101EA4000AE0002221464FF0FF3000F0EBF9054B29
:101EB4001C60002000E0012010BD00BF04000020D1
:101EC400000000200800002008B5074A136843F00A
:101ED40010031360032000F0C3F90F20FFF7CEFFB7
:101EE400FFF7ACFD002008BD00200240034A116842
:101EF400034B1B780B441360704700BF3C0D00205C
:101F040004000020014B1868704700BF3C0D0020FE
:101F140038B50446FFF7F6FF0546B4F1FF3F02D09B
:101F2400044B1B781C44FFF7EDFF401BA042FAD37F
:101F340038BD00BF0400002030B482B000220192FA
:101F440090F82420012A00F08F800346012280F8B3
:101F540024204A68062A2DD80468606B02EB8202AA
:101F6400053A4FF01F0C0CFA02FC20EA0C000D6835
:101F740005FA02F2024362630A68092A38D91C6826
:101F8400E06802EB42021E3A4FF0070C0CFA02FC26
:101F940020EA0C008D6805FA02F20243E2600A6846
:101FA400103A012A34D90020002283F8242002B0F8
:101FB40030BC70470C2A0DD80568286B02EB8202EE
:101FC400233A1F24944020EA04000C6894402043E0
:101FD4002863D1E70568E86A02EB8202413A1F24CC
:101FE400944020EA04000C6894402043E862C3E76C
:101FF4001C68206902EB42024FF0070C0CFA02FC49
:1020040020EA0C008D6805FA02F202432261C6E759
:102014001A681648824205D09A6A42F020029A62EF
:102024000120C1E7906810F4000F1BD1906840F4C0
:10203400000090600A68102A01D00020B4E70C4A1E
:1020440012680C49A1FB0212920C02EB82025200AC
:10205400019202E0019A013A0192019A002AF9D10F
:102064000020A1E700209FE70220A0E70024014010
:102074000000002083DE1B4338B503689A6812F021
:10208400010F01D1002038BD04469A6822F00102F4
:102094009A60FFF737FF054623689B6813F0010F2A
:1020A40013D0FFF72FFF431B022BF5D923689B683E
:1020B40013F0010FF0D0A36A43F01003A362E36AA4
:1020C40043F00103E3620120DDE70020DBE70000C9
:1020D400002800F0888070B50446836A002B52D033
:1020E4002046FFF7C9FFA36A13F0100375D1002837
:1020F40073D1A26A22F4885222F0020242F0020250
:10210400A2626268266839498E4242D0E1690A4374
:10211400217B42EA4102A568B5F5807F02D0012DFA
:102124003ED01D4694F814C0BCF1010F3BD0716839
:1021340021F46941294371602568AE682C49314016
:102144001143A960A168B1F5807F01D0012902D1B2
:102154002369013B1B052568E96A21F470010B43DF
:10216400EB6223689968234B0B409A422CD0A36AF4
:1021740023F0120343F01003A362E36A43F0010364
:10218400E36201202EE0C36280F82430FFF778FC7C
:10219400A6E7E169B1F5402FB9D14FF40021B6E7C4
:1021A4004FF48075BEE731B9A169013945EA41317F
:1021B40041F40065BBE7A16A41F02001A162E16A34
:1021C40041F00101E162B2E70023E362A36A23F074
:1021D400030343F00103A36204E0A36A43F0100382
:1021E400A362012070BD0120704700BF003C014084
:1021F400FDF7E1FFFE0E1FFF002808DB0901C9B24D
:1022040000F1604000F5614080F80013704700F071
:102214000F000901C9B2014B1954704714ED00E0D5
:1022240000B500F00700C0F1070CBCF1040F28BF93
:102234004FF0040C031D062B0FD9C31E4FF0FF3EB5
:102244000EFA0CF021EA000199400EFA03FE22EA8C
:102254000E0241EA02005DF804FB0023EEE70000F1
:10226400074AD36823F4E0631B041B0C000200F448
:10227400E060034343F0BF6343F40033D36070472B
:1022840000ED00E010B50446054BD868C0F3022009
:10229400FFF7C6FF01462046FFF7AEFF10BD00BFA3
:1022A40000ED00E0002807DB00F01F0240090123D5
:1022B4009340024A42F82030704700BF00E100E03A
:1022C4000138B0F1807F0BD24FF0E0235861054A0A
:1022D400F02182F823100020986107221A617047C8
:1022E4000120704700ED00E070B110B50446037999
:1022F40033B102232371002020610123237110BD17
:102304004371FFF70DFCF4E70120704770B50D46EB
:102314001146049A002854D004464079012852D02A
:10232400012060710220207145BBA068274E86629F
:10233400A068274EC662A068264E066326683068E9
:1023440040F48050306022B1042A14D02268103244
:1023540001E0226808325DBBA06800F00BF900239D
:10236400637148BB21680B6805F010050122AA407F
:1023740013430B6070BD22680C32ECE7E068164E24
:102384008662E068154EC662E068154E06632668EC
:10239400306840F08050306022B1042A05D02268B1
:1023A4001C32D8E722681432D5E722681832D2E703
:1023B400E06800F0DFF8D2E7236943F00403236107
:1023C400D8E70120D6E70220D4E700BFEB230008BA
:1023D400FD2300080924000885240008952400082A
:1023E4009F240008704710B5446A2046FFF7FAFF9F
:1023F4000123237110BD704708B5406AFFF7FBFF46
:1024040008BD704710B5446A236943F0040323618F
:102414002046FFF7F6FF0123237110BD48B384461D
:1024240049B34379012B28D010B54FF0010E80F841
:1024340005E0022303710468206802F0100240F6EC
:10244400FE73934020EA03000B6849680B439340F2
:1024540003432360DCF800000368C02101FA02F2A0
:1024640023EA020303608CF804E000208CF80500E2
:1024740010BD01207047012070470220704770474B
:1024840010B5446A2046FEF767FF0123237110BD8F
:1024940008B5406AFEF754FF08BD10B5446A2369C5
:1024A40043F0040323612046FFF7E9FF012323716E
:1024B40010BD30B40124056CAC40C56B6C6004687D
:1024C40063604368102B05D0036899600368DA6081
:1024D40030BC704703689A600368D960F8E700006D
:1024E400002838D010B4024601681C4B994227D802
:1024F4001B4B0B441B48A0FB03031B099B001364E9
:10250400194BD363022382F8213008686FF30D104E
:10251400536894682343D468234314692343546958
:10252400234394692343D469234303430B6000206A
:102534009063012382F8213082F8200010BC704798
:102544000A4B0B440748A0FB03031B099B001364BD
:10255400074BD363D6E70120704700BF070402404E
:10256400F8FFFDBFCDCCCCCC00000240F8FBFDBF92
:102574000004024038B5044690F82000012832D007
:10258400012084F8200094F82100C0B2012804D06E
:10259400002384F82030022038BD022084F8210072
:1025A4000020A0632568286820F0010028602046E8
:1025B400FFF77FFFE36A5BB12268136843F00E0301
:1025C40013602268136843F0010313600020E3E7FB
:1025D4002268136823F0040313602268136843F02D
:1025E4000A031360EDE70220D6E7000038B5C36B99
:1025F4001A6804682568016C04238B40134200F0B8
:102604009B8015F0040F00F09780236813F0200FCF
:1026140003D1236823F00403236003689A4A934296
:1026240046D9783A934224D01432934228D01432B3
:10263400934227D01432934227D01432934227D0A6
:102644001432934227D01432934227D002F5627297
:10265400934226D01432934225D01432934224D08C
:102664001432934202D04FF4802203E04FF48042AC
:1026740000E00422854B5A60C36A03B1984738BD11
:102684004022F7E74FF48062F4E74FF48042F1E729
:102694004FF48022EEE74FF48002EBE74FF08062C4
:1026A400E8E70422E6E74022E4E74FF48062E1E74A
:1026B400774A934224D01432934225D01432934261
:1026C40024D01432934224D01432934224D01432AE
:1026D400934224D01432934224D002F5627293427E
:1026E40023D01432934222D01432934221D0143294
:1026F400934202D04FF4802203E04FF4804200E082
:102704000422644B5A60B7E74022FAE74FF4806230
:10271400F7E74FF48042F4E74FF48022F1E74FF4F7
:102724008002EEE74FF08062EBE70422E9E7402203
:10273400E7E74FF48062E4E702238B40134200F0A2
:10274400AB8015F0020F00F0A780236813F0200F70
:1027540006D1236823F00A032360012380F8213083
:102764000368494A93424BD9783A934224D01432AD
:1027740093422DD0143293422CD0143293422CD055
:10278400143293422CD0143293422CD014329342FC
:102794002CD002F5627293422BD0143293422AD089
:1027A4001432934229D01432934202D04FF40032AF
:1027B40003E04FF4005200E00222344B5A6000233D
:1027C40080F82030836A002B3FF459AF984756E7CE
:1027D4002022F2E74FF40072EFE74FF40052ECE7E7
:1027E4004FF40032E9E74FF40012E6E74FF00072CD
:1027F400E3E70222E1E72022DFE74FF40072DCE79F
:10280400234A934224D01432934225D01432934263
:1028140024D01432934224D01432934224D014325C
:10282400934224D01432934224D002F5627293422C
:1028340023D01432934222D01432934221D0143242
:10284400934202D04FF4003203E04FF4005200E010
:102854000222104B5A60B2E72022FAE74FF40072CA
:10286400F7E74FF40052F4E74FF40032F1E74FF486
:102874000012EEE74FF00072EBE70222E9E72022B4
:10288400E7E74FF40072E4E78000024000040240EE
:10289400080002400000024008238B4013423FF42A
:1028A400EEAE15F0080F3FF4EAAE236823F00E03F2
:1028B4002360026CC16B012303FA02F24A60836352
:1028C40080F82130002380F82030036B002B3FF484
:1028D400D6AE9847D3E600BF70B582B00024A446B4
:1028E400ABE0854DAB4214D00CD8A5F58015AB42B6
:1028F4000FD005F57025AB420BD0A5F58015AB4282
:1029040010D106E07D4DAB4203D005F58035AB42D6
:1029140008D18B68002B5AD0012B53D04261082474
:1029240000E0CC68BEF1FF0F53D806464FEA8C0294
:1029340033680F25954023EA050304FA02F2134392
:1029440033604B6813F0805F75D06D4B9A6942F029
:1029540001029A619B6903F001030193019B4FEA11
:102964009C02951C674B53F825600CF00305AD00E1
:102974000F23AB4026EA0306634B984230D003F59D
:102984008063984200F0968003F58063984200F0DB
:10299400938003F58063984200F0908003F5806390
:1029A400984200F08D8003F58063984216D0062388
:1029B40017E0CC680434B5E7CC680834B2E7CC68D7
:1029C4000C34AFE702610824ACE70024AAE704242E
:1029D400A8E7061DACF108029200A9E7052300E070
:1029E4000023AB4033430232464D45F822304B6856
:1029F40013F4801F66D0454A936843EA0E0393603C
:102A04004B6813F4001F63D0404AD36843EA0E03B3
:102A1400D3604B6813F4003F60D03C4A536843EAE8
:102A24000E0353604B6813F4803F5DD0374A13683C
:102A340043EA0E0313600CF1010C0B6833FA0CF239
:102A440058D0012202FA0CF203EA020E32EA03031E
:102A5400F1D14B68122B3FF644AF122B3FF662AF15
:102A640001A555F823F000BF1729000827290008FD
:102A7400BD290008CF2900082929000829290008B0
:102A840029290008292900082929000829290008DA
:102A940029290008292900082929000829290008CA
:102AA400292900082929000829290008B72900082C
:102AB400C3290008012394E7022392E7032390E744
:102AC40004238EE7114A936823EA0E03936097E781
:102AD4000E4AD36823EA0E03D3609AE70B4A53687D
:102AE40023EA0E0353609DE7084A136823EA0E03A2
:102AF4001360A0E702B070BD000022100000311086
:102B040000100240000001400008014000040140A0
:102B14000AB101617047090401617047C36801EAA1
:102B2400030221EA030141EA024101617047000006
:102B340082B0084B1B68084AA2FB03235B0A00FB14
:102B440003F3019300BF019B5A1E0192002BF9D19C
:102B540002B0704700000020D34D6210002800F03E
:102B6400F18170B582B00446036813F0010F2CD0D4
:102B7400994B5B6803F00C03042B1DD0964B5B68E8
:102B840003F00C03082B12D06368B3F5803F41D0E7
:102B9400002B55D103F1804303F504331A6822F462
:102BA40080321A601A6822F480221A6037E08A4B55
:102BB4005B6813F4803FE7D0874B1B6813F4003F36
:102BC40003D06368002B00F0BF81236813F0020F69
:102BD40075D0814B5B6813F00C0F5FD07E4B5B6844
:102BE40003F00C03082B54D02369002B00F08A80D7
:102BF4007A4B01221A60FFF785F90546764B1B686C
:102C040013F0020F75D1FFF77DF9401B0228F5D9A7
:102C140003209EE1704A136843F4803313606368B1
:102C240043B3FFF76FF905466B4B1B6813F4003F82
:102C3400CBD1FFF767F9401B6428F5D9032088E15D
:102C4400B3F5A02F09D0644B1A6822F480321A60BD
:102C54001A6822F480221A60E1E703F18043A3F5A5
:102C64003C331A6842F480221A601A6842F48032B3
:102C74001A60D4E7FFF746F90546574B1B6813F46F
:102C8400003FA2D0FFF73EF9401B6428F5D903208A
:102C94005FE1514B5B6813F4803FA5D14E4B1B6839
:102CA40013F0020F03D02369012B40F04F814A4AED
:102CB400136823F0F803616943EAC10313602368CE
:102CC40013F0080F33D0A369002B5CD0434B0122CF
:102CD400C3F88024FFF716F905463F4B5B6A13F0EF
:102CE400020F21D1FFF70EF9401B0228F5D903206A
:102CF4002FE1394A136823F0F803616943EAC103F9
:102D04001360DCE7354B00221A60FFF7FBF8054639
:102D1400314B1B6813F0020FD1D0FFF7F3F8401BBF
:102D24000228F5D9032014E10120FFF701FF2368ED
:102D340013F0040F00F09680274BDB6913F0805FDB
:102D440034D1254BDA6942F08052DA61DB6903F051
:102D540080530193019B0125214B1B6813F4807F51
:102D640026D0E368012B3DD0002B53D103F18043DF
:102D740003F504331A6A22F001021A621A6A22F075
:102D840004021A6233E0154B0022C3F88024FFF7D3
:102D9400B9F80546104B5B6A13F0020FC7D0FFF772
:102DA400B1F8401B0228F5D90320D2E00025D3E76F
:102DB4000B4A136843F480731360FFF7A3F80646C5
:102DC400074B1B6813F4807FCBD1FFF79BF8801B64
:102DD4006428F5D90320BCE0001002400000424200
:102DE400007000405F4A136A43F001031362E36812
:102DF40033B3FFF787F806465A4B1B6A13F0020FEA
:102E04002FD1FFF77FF8801B41F288339842F3D922
:102E140003209EE0052B09D0524B1A6A22F00102CE
:102E24001A621A6A22F004021A62E0E74D4B1A6A27
:102E340042F004021A621A6A42F001021A62D6E7E8
:102E4400FFF760F80646474B1B6A13F0020F08D0E1
:102E5400FFF758F8801B41F288339842F3D90320D6
:102E640077E0E5B9E369002B72D03E4A526802F07C
:102E74000C02082A56D0022B17D03B4B00221A66AC
:102E8400FFF740F80446374B1B6813F0007F47D028
:102E9400FFF738F8001B0228F5D9032059E0314A1E
:102EA400D36923F08053D361DCE72F4B00221A66E9
:102EB400FFF728F805462B4B1B6813F0007F06D05C
:102EC400FFF720F8401B0228F5D9032041E0236ACC
:102ED400B3F5803F1AD023494B6823F47413226A54
:102EE400606A024313434B601F4B01221A66FFF7CB
:102EF40009F804461B4B1B6813F0007F0ED1FFF743
:102F040001F8001B0228F5D9032022E0154A536872
:102F140023F40033A1680B435360DCE7002018E07E
:102F2400002016E0012B16D00E4B5B6803F48031B1
:102F3400226A914211D103F47013626A93420ED152
:102F4400002006E001207047012002E0012000E09B
:102F5400002002B070BD0120FBE70120F9E7012049
:102F6400F7E700BF00100240000042420F4B5B68CD
:102F740003F00C02082A01D00D487047C3F38342C2
:102F84000C49885C13F4803F0BD0084B5B68C3F397
:102F94004043094AD35C064A02FB00F0B0FBF3F05D
:102FA4007047064B03FB00F0704700BF001002405F
:102FB40000127A008C5700088857000800093D0069
:102FC400002800F0A08070B50D460446524B1B68E3
:102FD40003F007038B420BD24F4A136823F0070315
:102FE4000B431360136803F007038B4240F08D809A
:102FF400236813F0020F17D013F0040F04D0474ACC
:10300400536843F4E0635360236813F0080F04D05B
:10301400424A536843F460535360404A536823F070
:10302400F003A1680B435360236813F0010F31D000
:103034006368012B20D0022B25D0384A126812F085
:10304400020F64D035494A6822F0030213434B60EF
:10305400FEF758FF0646314B5B6803F00C036268C9
:10306400B3EB820F16D0FEF74DFF801B41F288337D
:103074009842F0D9032045E0284A126812F4003F30
:10308400E0D101203EE0254A126812F0007FD9D138
:10309400012037E0204B1B6803F00703AB420AD939
:1030A4001D4A136823F007032B431360136803F0CE
:1030B4000703AB422DD1236813F0040F06D0174A3F
:1030C400536823F4E063E1680B435360236813F00F
:1030D400080F07D0114A536823F46053216943EA67
:1030E400C1035360FFF742FF0C4B5B68C3F3031348
:1030F4000B4AD35CD8400B4B18600B4B1868FEF797
:10310400BDFE002070BD012070470120FAE70120B8
:10311400F8E70120F6E700BF00200240001002405B
:10312400785700080000002008000020014B1868B0
:10313400704700BF0000002008B5FFF7F7FF044BFD
:103144005B68C3F30223034AD35CD84008BD00BFC5
:10315400001002407057000808B5FFF7E7FF044B62
:103164005B68C3F3C223034AD35CD84008BD00BFE5
:10317400001002407057000870B582B0044603681E
:1031840013F0010F36D03F4BDB6913F0805F49D158
:103194003C4BDA6942F08052DA61DB6903F0805318
:1031A4000193019B0125384B1B6813F4807F3BD0AE
:1031B400344B1B6A13F4407313D0626802F44072F8
:1031C4009A420ED02F4A136A23F440702F490126E5
:1031D400C1F840640026C1F84064106213F0010F86
:1031E40036D1284A136A23F4407361680B4313628F
:1031F400002D3ED1236813F0020F06D0214A5368F4
:1032040023F44043A1680B435360236813F0100F69
:1032140034D01C4A536823F4800361690B43536020
:1032240000202CE00025BEE7174A136843F480739E
:103234001360FEF767FE0646134B1B6813F4807F8A
:10324400B6D1FEF75FFE801B6428F5D9032016E093
:10325400FEF758FE06460B4B1B6A13F0020FC0D153
:10326400FEF750FE801B41F288339842F3D90320C5
:1032740005E0D36923F08053D361BBE7002002B09B
:1032840070BD00BF001002400070004000004242C8
:103294002DE9F04782B00546884617461E46FEF7DC
:1032A40031FE0A9B1B1A03EB0609FEF72BFE82462E
:1032B400284B1B68C3F3CB3309FB03F301932B683F
:1032C4009C6838EA04040CBF01230023BB423DD0B0
:1032D400B6F1FF3FF3D0FEF715FEA0EB0A00484518
:1032E40007D2019A02B14A46019B013B01939146E0
:1032F400E5E72A68536823F0E00353606B68B3F58D
:10330400827F0BD0AB6AB3F5005F14D0012385F83C
:103314005130002385F85030032018E0AB68B3F532
:10332400004F02D0B3F5806FECD12A68136823F004
:1033340040031360E6E72A68136823F4005313601C
:103344002A68136843F400531360DFE7002002B0D7
:10335400BDE8F0870000002070B582B006460C4638
:10336400154600920B4601220221FFF791FF48B94E
:1033740000952346002280213046FFF789FF38B9A3
:1033840002B070BD736D43F0200373650320F7E74B
:10339400736D43F0200373650320F1E7002856D0D2
:1033A40010B50446436A33B94368B3F5827F05D048
:1033B4000023C36102E00023036143610023A3628D
:1033C40094F85130002B3CD0022384F85130226809
:1033D400136823F040031360636803F48273A268E4
:1033E40002F404421343E26802F4006213432269C4
:1033F40002F002021343626902F001021343A2695C
:1034040002F400721343E26902F038021343226AA1
:1034140002F080021343A26A02F4005221681343AB
:103424000B60638B226803F0040353602268D36942
:1034340023F40063D36100206065012384F85130D4
:1034440010BD84F850302046FEF7B8FBBCE70120DD
:1034540070472DE9F04383B00446894690461D46E3
:10346400FEF750FD94F85160F6B2012E40F0CC8086
:103474000746B9F1000F00F0C880B8F1000F00F062
:10348400C48094F85030012B00F0C380012384F8E9
:103494005030032384F8513000236365C4F830901E
:1034A400A4F83480A4F83680A363A387E387636415
:1034B4002364A368B3F5004F1ED023681A6812F082
:1034C400400F03D11A6842F040021A60E368B3F572
:1034D400006F1CD0636813B1B8F1010F5FD1226B88
:1034E400236812781A73236B01332363E38E9BB230
:1034F400013B9BB2E38652E02268136823F0400349
:1035040013602268136843F480431360D5E763684B
:1035140013B1B8F1010F15D1226B23681288DA6058
:10352400236B02332363E38E9BB2013B9BB2E3869E
:1035340008E0FEF7E7FCC01BA84202D3B5F1FF3F49
:1035440015D1A5B1E38E9BB2002B42D023689A68B3
:1035540012F0020FEDD0226B1288DA60236B023373
:103564002363E38E9BB2013B9BB2E386EAE701232C
:1035740084F85130002384F85030032645E0226B50
:1035840012781A73236B01332363B4F836C01FFA1D
:103594008CFC0CF1FF3C1FFA8CFCA4F836C0E38EC3
:1035A4009BB2B3B123689A6812F0020FE7D1FEF719
:1035B400A9FCC01BA84202D3B5F1FF3F01D1002DE5
:1035C400EDD1012384F85130002384F850300326D0
:1035D4001BE03A4629462046FFF7BEFE08B12023E9
:1035E4006365A36833B901932368DA6801929B6821
:1035F4000193019B012384F85130002384F8503057
:10360400636D13B9002600E00226304603B0BDE81E
:10361400F0830226F9E710B4036A046A24F0010473
:103624000462846924F0F00C4CEA021223F00A03C9
:103634000B438261036210BC704710B4036A046ACE
:1036440024F010040462846924F4704C4CEA0232BD
:1036540023F0A00343EA01138261036210BC7047A4
:10366400836823F070030B4343F0070383607047C0
:1036740090F83D30DBB2012B2FD1022380F83D308E
:103684000268D36843F00103D3600368154A934288
:1036940018D002F50062934214D0B3F1804F11D0D8
:1036A400A2F5983293420DD002F58062934209D07C
:1036B40002F58062934205D01A6842F001021A6052
:1036C400002070479A6802F00702062A07D01A6899
:1036D40042F001021A600020704701207047002068
:1036E400704700BF002C0140704770477047704717
:1036F40070B504460368DE681D6915F0020F10D02A
:1037040016F0020F0DD06FF002021A610123037745
:1037140003689B6913F0030F5ED0FFF7E6FF0023F5
:10372400237715F0040F12D016F0040F0FD023687E
:103734006FF004021A610223237723689B6913F450
:10374400407F4FD02046FFF7D0FF0023237715F0AA
:10375400080F12D016F0080F0FD023686FF008027C
:103764001A61042323772368DB6913F0030F40D025
:103774002046FFF7BAFF0023237715F0100F12D06D
:1037840016F0100F0FD023686FF010021A6108238F
:1037940023772368DB6913F4407F31D02046FFF799
:1037A400A4FF0023237715F0010F02D016F0010FB8
:1037B4002DD115F0800F02D016F0800F2FD115F007
:1037C400400F02D016F0400F31D115F0200F02D077
:1037D40016F0200F33D170BDFFF786FF2046FFF7A8
:1037E40085FF9CE72046FFF77FFF2046FFF77EFF1B
:1037F400ABE72046FFF778FF2046FFF777FFBAE7ED
:103804002046FFF771FF2046FFF770FFC9E72368E2
:103814006FF001021A612046FDF786FDC9E72368AF
:103824006FF080021A61204600F05DF9C7E7236853
:103834006FF040021A612046FFF759FFC5E723687D
:103844006FF020021A61204600F04CF9C3E7000033
:103854000368284A904212D002F5006290420ED0CA
:10386400B0F1804F0BD0A2F59832904207D002F508
:103874008062904203D002F58062904203D123F02B
:1038840070034A6813431B4A904212D002F5006247
:1038940090420ED0B0F1804F0BD0A2F598329042F6
:1038A40007D002F58062904203D002F58062904214
:1038B40003D123F44073CA68134323F080034A6995
:1038C400134303608B68C3620B688362094B98429D
:1038D40003D003F50063984201D10B69036301230C
:1038E4004361036913F0010F03D0036923F001035B
:1038F40003617047002C014040B310B5044690F8B2
:103904003D30F3B1022384F83D30214651F8040BD5
:10391400FFF79EFF012384F8463084F83E3084F894
:103924003F3084F8403084F8413084F8423084F8E1
:10393400433084F8443084F8453084F83D30002026
:1039440010BD80F83C30FEF773F9DBE701207047C7
:1039540010B4846824F47F4C42EA03220A4342EA06
:103964000C02826010BC704790F83C30012B78D078
:1039740010B50446012380F83C30022380F83D3022
:103984000268936823F47F4323F0770393600B6802
:10399400602B4CD023D8402B54D011D8202B03D0EB
:1039A4000AD80BB1102B05D119462068FFF758FE31
:1039B400002028E0012026E0302BF5D0012022E071
:1039C400502B0AD1CA6849680068FFF724FE5021C9
:1039D4002068FFF745FE002015E0012013E0B3F551
:1039E400805F3AD0B3F5005F14D0702B37D1CB6829
:1039F4004A6889680068FFF7ABFF2268936843F060
:103A0400770393600020012384F83D30002384F879
:103A14003C3010BDCB684A6889680068FFF798FF9E
:103A24002268936843F4804393600020EBE7CA68FC
:103A340049680068FFF701FE60212068FFF710FE67
:103A44000020E0E7CA6849680068FFF7E4FD402108
:103A54002068FFF705FE0020D5E70020D3E701200A
:103A6400D1E702207047000090F83C20012A34D0AE
:103A740010B40346012280F83C20022280F83D2045
:103A840002685068946820F0700C086840EA0C00E2
:103A940050601A681248824212D000F500608242D7
:103AA4000ED0B2F1804F0BD0A0F59830824207D0EF
:103AB40000F58060824203D000F58060824204D128
:103AC40024F08004496821439160012283F83D2059
:103AD400002083F83C0010BC70470220704700BFF0
:103AE400002C01407047704710B504460268136902
:103AF40023F44053C1680B43136183680269134381
:103B040042691A430168CB6823F4B05323F00C03D1
:103B14001343CB600268536923F4407381690B43F8
:103B240053610268134B9A4220D0FFF705FB02460B
:103B340002EB820202EB820263689B00B2FBF3F2A7
:103B44000D48A0FB02314909642303FB11231B0127
:103B54003233A0FB03035B0903F0F00202EB011212
:103B640003F00F03216813448B6010BDFFF7F4FAD0
:103B74000246DDE7003801401F85EB5160B310B504
:103B8400044690F8413013B3242384F8413022686A
:103B9400D36823F40053D3602046FFF7A5FF2268BF
:103BA400136923F4904313612268536923F02A03B1
:103BB40053612268D36843F40053D36000206064E7
:103BC400202384F8413084F84230606310BD80F8CB
:103BD4004030FEF76DF8D7E701207047164B10B55B
:103BE4001C68236BB3B9182000F01EFA0246206348
:103BF40020B95221114B124800F0B0F91149124B6F
:103C0400C0E90013114B002183600B238381012041
:103C1400C2E90401216B0E480B694C6958430D4AF3
:103C240002FB0400A3FB0232013340EB0200C1E9B2
:103C3400043020F0004010BD180000209C570008FC
:103C4400B35700080E33CDAB34126DE6ECDE05003D
:103C54002DF451582D7F954C002310B50446C0E92E
:103C64000033C0E90433836081814366C281836188
:103C7400194608225C3000F0F4F80D4B24626362AC
:103C84000C4BA3620C4BE3620C4B23630C4B9C4226
:103C940006D003F16802944202D0D0339C4205D18D
:103CA40004F15800BDE8104000F054B910BD00BF45
:103CB400E13D0008033E00083B3E00085F3E00086B
:103CC400400D0020024A0349034800F069B800BFD0
:103CD4000C000020994200081C00002041680C4B95
:103CE40010B59942044601D000F0D4FAA168094BFA
:103CF400994202D0204600F0CDFAE168064B994281
:103D040004D02046BDE8104000F0C4BA10BD00BF86
:103D1400400D0020A80D0020100E002010B50B4B04
:103D24000B4C0C4A20461A6004210022FFF794FF32
:103D340004F1680001220921FFF78EFF04F1D0008D
:103D44000222BDE810401221FFF786BF780E002042
:103D5400400D0020C93C0008014800F0FCB800BF39
:103D6400810E0020014800F0F7B800BF810E00204A
:103D740010B50446FFF7F0FF236A1BB1BDE81040FD
:103D8400FFF7F0BF044B2362044B1B68002BF5D1F3
:103D9400FFF7C4FFF2E700BFE13C0008780E002003
:103DA4002DE9F8430746884614460026D4E90195D0
:103DB400B9F1010905D52468002CF7D13046BDE8D6
:103DC400F883AB89012B07D9B5F90E30013303D041
:103DD40029463846C04706436835E9E710B50C461E
:103DE400B1F90E1000F068F80028ABBF636DA38929
:103DF4001B1823F48053ACBF6365A38110BD2DE968
:103E0400F0411F468B890546DB050C46164605D551
:103E140002230022B1F90E1000F03CF8A3893246C7
:103E240023F48053A38128463B46B4F90E10BDE821
:103E3400F04100F053B810B50C46B1F90E1000F083
:103E440029F8431CA38915BF606523F4805343F408
:103E54008053A38118BFA38110BDB1F90E1000F0E7
:103E640009B803460244934200D1704703F8011B8A
:103E7400F9E7000038B50023054D044608462B60D9
:103E8400FDF7A4FF431C02D12B6803B1236038BDA6
:103E94007C0E002038B50446084611460022054D24
:103EA4002A601A46FDF79CFF431C02D12B6803B11C
:103EB400236038BD7C0E002038B504460846114600
:103EC4000022054D2A601A46FDF762FF431C02D109
:103ED4002B6803B1236038BD7C0E002038B504463E
:103EE400084611460022054D2A601A46FDF760FF78
:103EF400431C02D12B6803B1236038BD7C0E002023
:103F0400014B1868704700BF1800002070B50026E8
:103F14000C4D0D4C641BA410A64209D101F00AFCFF
:103F240000260A4D0A4C641BA410A64205D170BD9C
:103F340055F8043B98470136EEE755F8043B98479B
:103F44000136F2E7545C0008545C0008545C000835
:103F5400585C000870477047704700001FB514464E
:103F64001A46094B05461B68D8684CB1074BCDE986
:103F7400013400912B46064900F0B4F900F0D4F95D
:103F8400044B1C46F3E700BF180000200B58000840
:103F9400185800084658000838B50546002940D08E
:103FA40051F8043C0C1F002BB8BFE41800F0E6F8ED
:103FB4001C4A136833B9636014602846BDE838406E
:103FC40000F0E2B8A34208D9206821188B4201BF4F
:103FD40019685B6809182160EDE71A465B680BB144
:103FE400A342FAD911685018A0420BD120680144A9
:103FF400501883421160E0D118685B68084410606F
:104004005360DAE702D90C232B60D6E72068211825
:104014008B4201BF19685B680918216063605460B2
:10402400CBE738BD880E0020024B0146186800F02B
:1040340025B800BF1800002070B50F4E0C4631683B
:10404400054611B900F060F930602146284600F0B9
:104054005BF9431C03D14FF0FF34204670BDC41CF0
:1040640024F00304A042F8D0211A284600F04CF9A9
:104074000130F2D1EFE700BF840E00202DE9F843B0
:10408400CD1C25F0030508350C2D38BF0C25002D5B
:10409400064601DBA94204D90C2333600020BDE8A5
:1040A400F883DFF8D48000F069F8D8F800301C46B3
:1040B40044BB29463046FFF7BFFF431C044658D192
:1040C400D8F800402746002F43D1002C4BD023685A
:1040D4003946304604EB030900F016F9814542D114
:1040E400216830466D1A2946FFF7A6FF01303AD001
:1040F40023682B442360D8F800305A6862BBC8F8A0
:1041040000700FE02268521B20D40B2A17D96119C2
:10411400A342256018BF5960636808BFC8F800103F
:1041240062514B60304600F02FF804F10B00231D60
:1041340020F00700C21A1CBF1B1AA350AFE7626825
:10414400A3420CBFC8F800205A60EBE7234664681A
:10415400AEE73C467F68B6E71A465B68A342FBD1EC
:1041640000235360DEE70C233046336000F00CF884
:1041740094E70560D6E700BF880E00200148FFF7EA
:10418400EABE00BF800E00200148FFF7E5BE00BF75
:10419400800E0020B1F90C20F8B5160705460C4630
:1041A40054D44B68002B02DC0B6C002B48DDE66A10
:1041B400002E45D0002312F480522F68216A2B6010
:1041C40030D0626DA389590705D56368D21A636B31
:1041D4000BB1236CD21A00232846E66A216AB04741
:1041E400431CA38906D129681D292BD8284ACA4013
:1041F400D60727D5002262602269D904226004D53B
:10420400421C01D12B6803B96065616B2F60B9B1A1
:1042140004F14403994202D02846FFF7BDFE00236F
:1042240063630DE001232846B0470246501CC9D100
:104234002B68002BC6D01D2B01D0162B1DD12F604F
:10424400002021E043F040031BB21AE00F69002F65
:10425400F6D0930718BF00230E6808BF4B69F61BFE
:104264000F608B60002EEBDD33463A462846216A08
:10427400D4F828C0E047002807DCB4F90C3043F038
:1042840040034FF0FF30A381F8BD0744361AE9E735
:104294000100402038B50B6905460C4613B90025CA
:1042A400284638BD18B1036A0BB9FFF761FDB4F9AC
:1042B4000C30002BF3D0626ED00704D4990502D4DD
:1042C400A06DFFF748FE28462146FFF763FF636EA3
:1042D4000546DA07E4D4A3899B05E1D4A06DFFF772
:1042E4003BFEDDE70EB403B5014603AB054853F8C6
:1042F400042B0068019300F045F802B05DF804EB6C
:1043040003B070471800002038B50023054D04465B
:1043140008462B60FDF766FD431C02D12B6803B1F0
:10432400236038BD7C0E0020062008B500F08EFB0B
:104334000120FDF727FD936810B4013B002B936027
:1043440007DA9469A34201DB0A2902D110BC00F008
:10435400C1BA1368581C10601970084610BC704725
:10436400F8B506460F461446D518AC4201D10020D4
:1043740007E03A46304614F8011BFFF7DCFF431C04
:10438400F3D1F8BD2DE9F04F0D4614469846064684
:104394009DB018B1036A0BB9FFF7EAFC6B6ED9073D
:1043A40005D4AB899A0502D4A86DFFF7D4FDAB8977
:1043B4001B0701D52B699BB92946304600F0C8FA82
:1043C40070B16B6EDC0704D54FF0FF301DB0BDE853
:1043D400F08FAB899805F7D4A86DFFF7BDFDF3E71F
:1043E4000023099320238DF8293030234FF001094D
:1043F400CDF80C80DFF8A8818DF82A3023469A4640
:1044040013F8012B0AB1252AF9D1BAEB040B0BD00E
:104414005B46224629463046FFF7A2FF013000F0F2
:10442400A780099A5A4409929AF80030002B00F0A8
:104434009F8000234FF0FF32CDE905230AF1010AE2
:10444400049307938DF853301A935446052214F8B5
:10445400011B534800F016FB049AD8B9D10644BF97
:1044640020238DF85330130744BF2B238DF853308A
:104474009AF800302A2B15D0544600204FF00A0C2D
:10448400079A214611F8013B303B092B4BD9B0B1B7
:10449400079214E0A0EB080309FA03F31343A246BE
:1044A4000493D2E7039B191D1B680391002BBBBF28
:1044B4005B4242F0020207930793B8BF0492237849
:1044C4002E2B0AD163782A2B32D1039B02341A1D76
:1044D4001B68039243EAE3730593DFF8C8A0032241
:1044E4005046217800F0CEFA38B14022049BA0EB6C
:1044F4000A00824013430134049314F8011B06227A
:1045040029488DF8281000F0BDFA00283FD0274B29
:104514001BBB039B073323F0070308330393099B57
:104524003B4409936AE70C4601200CFB0232A8E7DE
:1045340000234FF00A0C194601340593204610F865
:10454400012B303A092A03D9002BC6D00591C4E7C0
:10455400044601230CFB0121F0E703AB00932A4638
:104564003046134B04A9AFF300800746781CD6D11C
:104574006B6ED90705D4AB899A0502D4A86DFFF7F1
:10458400EBFCAB895B063FF51FAF09981EE703AB55
:1045940000932A463046064B04A900F07DF8E4E770
:1045A400475800084D580008515800080000000002
:1045B400654300082DE9F047164698468A680B695A
:1045C40007469342B8BF1346336091F843200C4624
:1045D400DDF820900AB1013333602368990642BFA5
:1045E400336802333360256815F0060506D104F1FB
:1045F400190AE36832689B1AAB422BDC94F8433007
:104604002268003B18BF0123920630D44146384645
:1046140004F14302C847013023D02368226903F020
:104624000603042B14BF002533684FF0000608BFAF
:10463400E56804F11A0408BFED1A54F8123C08BFE7
:1046440025EAE5759342C4BF9B1AED18B5421AD109
:10465400002008E00123524641463846C84701304D
:1046640003D14FF0FF30BDE8F0870135C1E73020BA
:10467400E11881F843005A1C94F84510224402338F
:1046840082F84310C2E70123224641463846C84710
:104694000130E6D00136D9E72DE9FF470F7E914678
:1046A400782F80460C469A460C9E01F1430207D8A7
:1046B400622F0AD8002F00F0D180582F00F0B88064
:1046C40004F1420684F842703AE0A7F16303152B23
:1046D400F6D801A151F823F03547000849470008EE
:1046E400C5460008C5460008C5460008C54600087A
:1046F40049470008C5460008C5460008C5460008E5
:10470400C5460008474800087347000801480008E8
:10471400C5460008C546000869480008C5460008A3
:1047240073470008C5460008C54600080948000844
:1047340033681A1D1B68326004F1420684F8423063
:1047440001239CE033682068191D3160060601D5F9
:104754001D6803E04506FBD5B3F90050002D03DACC
:104764002D236D4284F843300A23584811E0216810
:104774003368080653F8045B02D4490648BFADB257
:104784006F2F336014BF0A2308235048002184F894
:1047940043106668002EA66005DB21682E4321F0D5
:1047A400040121604BD01646B5FBF3F103FB11570E
:1047B400C75D06F8017D2F46BB420D46F4D9082B90
:1047C4000BD12368DF0708D5236961689942DEBFEE
:1047D400302306F8013C06F1FF36921B22614B465A
:1047E40021464046CDF800A003AAFFF7E3FE0130BE
:1047F4004AD14FF0FF3004B0BDE8F087236843F09E
:10480400200323607827324884F845702368316890
:104814001F0651F8045B02D45F0648BFADB2316095
:10482400D90744BF43F0200323601DB11023ADE733
:104834002648E9E7236823F020032360F6E71646B9
:10484400BDE733682568181D616930602E061B6852
:1048540001D5196002E06806FBD5198000231646CD
:104864002361BCE7336800211A1D32601E68626848
:10487400304600F007F908B1801B6060636823616B
:10488400002384F84330AAE7324649464046236968
:10489400D0470130ADD023689B0713D4E068039B55
:1048A4009842B8BF1846A6E7012332464946404617
:1048B400D04701309DD00135E36803995B1AAB42C0
:1048C400F2DCEBE7002504F11906F5E75858000877
:1048D40069580008F8B50E461446054618B1036A2F
:1048E4000BB9FFF745FAA369A360A3891A0701D599
:1048F400236943B92146284600F02AF818B14FF03D
:10490400FF373846F8BD23682269F6B2981A6369FE
:104914003746834205DC21462846FFF7BBFC0028C6
:10492400EDD1A368013BA36023685A1C22601E706A
:104934006269431C9A4204D0A389DB07E1D50A2E9D
:10494400DFD121462846FFF7A5FC0028D9D0D6E7B9
:1049540038B5294B054618680C4618B1036A0BB9DB
:10496400FFF706FAB4F90C30190722D4DA0607D493
:1049740009222A6043F040034FF0FF30A38133E063
:10498400580712D5616B41B104F14403994202D036
:104994002846FFF701FB00236363A38923F0240364
:1049A400A3810023636023692360A38943F0080380
:1049B400A38123694BB9A38903F42073B3F5007F62
:1049C40003D02146284600F090F8B4F90C3013F0D7
:1049D40001020AD00022A26062695242A2612269E5
:1049E40042B913F08000C5D138BD990758BF626938
:1049F400A260F4E70020F7E7180000201F2938B56B
:104A040005460C4604D9162303604FF0FF3038BD29
:104A1400C26B12B152F821304BB9284600F030F87D
:104A2400224601462846BDE8384000F017B8012B5D
:104A34000AD0591C03D1162303600120E7E70021A3
:104A4400204642F8241098470020E0E7024B014634
:104A54001868FFF7D3BF00BF1800002038B5002343
:104A6400064D0446084611462B60FDF783F9431CA6
:104A740002D12B6803B1236038BD00BF7C0E002037
:104A8400FDF776B9034610B5C9B2024493421846FD
:104A940001D1002003E0047801338C42F6D110BD2B
:104AA40070B50C46B1F90E10154600291E4696B095
:104AB4000CDAA389002113F0800F14BF40234FF4B4
:104AC4008063002031602B6016B070BD6A4600F030
:104AD40049F80028EDDB019901F47041A1F5005378
:104AE400594259414FF48063EBE78B89F7B59D0731
:104AF40006460C4607D504F14703236023610123CE
:104B0400636103B0F0BD6A4601ABFFF7C9FF009FC4
:104B1400054639463046FFF7B1FA48B9B4F90C30C6
:104B24009A05EED423F0030343F00203A381E2E7E2
:104B3400A389C4E9040743F08003A381019B206097
:104B44005BB13046B4F90E1000F01EF828B1A38909
:104B540023F0030343F00103A381A3891D43A5812B
:104B6400CFE7000038B50023064D04460846114639
:104B74002B60FDF72EF9431C02D12B6803B123608F
:104B840038BD00BF7C0E002038B50023054D044617
:104B940008462B60FDF722F9431C02D12B6803B1B0
:104BA400236038BD7C0E002007B51B4A20F000436B
:104BB4009342014606D80022002103B05DF804EBBD
:104BC40000F0ACB8B3F1FF4F04D3FBF72DFB03B0F7
:104BD4005DF804FB694600F017F900F003000128B2
:104BE40008D002280BD090B901220199009800F056
:104BF40095F8ECE70199009800F010F8E7E7012236
:104C04000199009800F08AF800F10040DFE701996B
:104C1400009800F003F8F7E7D80F493F2DE9F04179
:104C240020F00045B5F1485F0646884603D2FBF7FD
:104C3400CBFD00285CD031463046FBF7FFFB4FF03C
:104C44007C510446FBF7FAFB2B4907462046FBF749
:104C5400F5FB2A49FBF7EAFA2146FBF7EFFB284963
:104C6400FBF7E2FA2146FBF7E9FB2649FBF7DEFAFC
:104C74002146FBF7E3FB2449FBF7D6FA2146FBF771
:104C8400DDFB2249FBF7D2FA2146FBF7D7FB21468D
:104C9400FBF7D4FB414604463046FBF7CFFB014605
:104CA4002046FBF7C1FA1A4B04469D420AD8014636
:104CB4003846FBF7B9FA01464FF07E50FBF7B4FAD9
:104CC400BDE8F081134B4FF07E509D428CBF124DD6
:104CD40005F17F452946FBF7A7FA294606463846DB
:104CE400FBF7A2FA2146FBF79FFA01463046E5E7B7
:104CF4004FF07E50E4E700BF4ED747ADF6740F3156
:104D04007CF29334010DD037610BB63AABAA2A3D3D
:104D14009999993E0000483F0000903E2DE9F843E0
:104D240020F00043B3F1485F04460F46914603D296
:104D3400FBF74AFD002835D021462046FBF77EFBD1
:104D4400054601462046FBF779FB294906462846D5
:104D5400FBF774FB2749FBF767FA2946FBF76EFB61
:104D64002549FBF763FA2946FBF768FB2349FBF760
:104D74005BFA2946FBF762FB2149FBF757FA8046A9
:104D8400B9F1000F11D101462846FBF757FB1D4925
:104D9400FBF74AFA3146FBF751FB01462046FBF785
:104DA40045FA04462046BDE8F8834FF07C51384666
:104DB400FBF744FB414681463046FBF73FFB014687
:104DC4004846FBF731FA2946FBF738FB3946FBF72F
:104DD4002BFA0C4905463046FBF730FB01462846C2
:104DE400FBF724FA01462046FBF71EFAD9E700BF79
:104DF400D3C92E2F342FD7321BEF3836010D50393B
:104E04008988083CABAA2A3E2DE9F04FA44A20F039
:104E1400004890450C46824687B004D800230860B9
:104E24004B6000251DE09F4A90454FD820F0004577
:104E340000289D499D4F25F00F0524DDFBF7F4F96B
:104E4400BD42064611D09A49FBF7EEF901460546E4
:104E54003046FBF7E9F99649FBF7E6F925600125A9
:104E64006060284607B0BDE8F08F9249FBF7DCF993
:104E740091490646FBF7D8F9014605463046FBF74B
:104E8400D3F98D49E8E7FBF7D1F9BD4206460FD0C7
:104E94008749FBF7CBF9014605463046FBF7C4F9D1
:104EA4008349FBF7C3F9256060604FF0FF35D8E70D
:104EB4008049FBF7BBF980490646FBF7B7F9014681
:104EC40005463046FBF7B0F97B49EAE77B4A904553
:104ED40000F2958000F0FEF879490646FBF7AEFA39
:104EE4004FF07C51FBF7A2F9FBF76EFC0546FBF78C
:104EF40051FA6D498146FBF7A1FA01463046FBF7AA
:104F040093F96B4907464846FBF798FA1F2D064666
:104F14000EDC6C4A691E52F821202AF0004323F06B
:104F2400FF03934204D031463846FBF77DF90BE08A
:104F340031463846FBF778F9C0F3C753C3EBD8536F
:104F4400082B4FEAE85B01DC206026E0594948461B
:104F5400FBF774FA064601463846FBF765F9014645
:104F640080463846FBF760F93146FBF75DF90646A3
:104F740051494846FBF762FA3146FBF755F90146B9
:104F840006464046FBF750F9C0F3C753ABEB030B9F
:104F9400BBF1190F18DC47462060D4F8008038466E
:104FA4004146FBF741F93146FBF73EF9BAF1000FF0
:104FB4006060BFF656AF08F1004800F10040C4F845
:104FC400008060606D424CE73F494846FBF736FA83
:104FD400064601464046FBF727F901460746404688
:104FE400FBF722F93146FBF71FF9064637494846D5
:104FF400FBF724FA3146FBF717F9064693E7B8F1B5
:10500400FF4F05D30146FBF70FF96060206008E706
:105014004FEAE856863EA8EBC6584046FBF7D4FB59
:10502400FBF7B8F9014603904046FBF7FDF84FF053
:105034008741FBF703FA0746FBF7C6FBFBF7AAF920
:105044000146049005463846FBF7EEF84FF08741D9
:10505400FBF7F4F900210590FBF784FBF0B1002184
:105064002846FBF77FFB002814BF01230223184ABC
:1050740021460192022203A80092324600F02EF843
:10508400BAF1000F0546BFF6ECAE236803F1004306
:105094002360636803F10043636093E70323E6E757
:1050A400D80F493FE3CB1640800FC93FD00FC93F0B
:1050B400434435370044353708A3852E800F4943D0
:1050C40084F9223F7C58000800A3852E32318D24B8
:1050D400FC58000820F00040704700002DE9F04F14
:1050E400DBB002920493649AAC4B059053F82230DF
:1050F40000910193049B013B0393029B1A1DC0F290
:105104009980DC1E48BF1C1DE41000254FF0000BE5
:10511400671CFB000693029B039AA3EBC707019B42
:10512400A4EB020803EB0209659B1EAE03EB880A9D
:105134004D4540F38180049A1EAB03EB82054FF08A
:10514400000900230DF58C7A019A914540F39A8069
:1051540013460AAA02EB83030893659B03EB8403BB
:10516400019C07930DF12808464625464FF08749D0
:105174005AAB03EB840353F850BC0DF58C7A002D25
:1051840000F385803946584600F046FA4FF07851CE
:105194000546FBF753F900F08BFA4FF08241FBF719
:1051A4004DF901462846FBF73FF80546FBF70CFB93
:1051B4000646FBF7EFF801462846FBF735F8002FC3
:1051C400814640F38180621E0AAB53F82250C7F136
:1051D400080145FA01F31E448B40ED1A0AAB43F86B
:1051E4002250C7F107031D41002D7ADD00229246AB
:1051F4000136944200F3AA80002F05DD012F00F050
:10520400B680022F00F0BD80022D6AD149464FF0CE
:105214007E50FBF709F88146BAF1000F61D0394698
:105224004FF07E5000F0F8F901464846FAF7FCFFCB
:10523400814656E0002468E718EB050F07D45AF8B6
:105244002500FBF7A7F846F8040B013570E758462C
:10525400F9E70793059B5BF8041D53F82800FBF757
:10526400EDF801463046FAF7E1FF0646079B08F1E0
:105274000108039A9045ECDD4AF8046B09F1010931
:10528400043561E7AB461E464FF00008F1E74FF0E6
:105294006E515846FBF7D2F8FBF796FAFBF77AF80B
:1052A40049460990FBF7CAF801465846FAF7BCFF8D
:1052B400FBF78AFA013D46F8040B5AF825100998C1
:1052C400FAF7B4FF83465AE705D1631E0AAA52F8D7
:1052D4002350ED1188E74FF07C51FBF761FA054646
:1052E40090BB00214846FBF73DFA002800F090806F
:1052F4000022631E01998B424ADA002A76D0013CCF
:105304000AAB53F82430083F002BF8D039464FF04D
:105314007E5000F081F9A24607464FF06E590DF514
:105324008C78BAF1000F80F2A18027460022002F6A
:10533400C0F2CB8046A990464FF0000A184B01EB0F
:10534400870BA4EB0709B4E002254FE758F8043BA8
:10535400BAF1000F08D123B1C3F5807348F8043CB7
:1053640001239A46013244E7C3F1FF03F6E7621EC4
:105374000AAB53F8223003F07F030AA941F8223024
:1053840042E7621E0AAB53F8223003F03F03F4E70E
:105394000AA951F82310013B0A43ABE7405C00081B
:1053A400145C0008013352F8041D0029FAD0049A51
:1053B4001EA9A218661C01EB82051C440DF58C790C
:1053C400B442FFF6CFAE079BAB4653F82600FAF77C
:1053D400E1FF4FF0000A4FF000082860039B9A4554
:1053E40007DD49F8268004350136E9E70123089AE8
:1053F400D9E7059B5BF8040953F82A10FBF71EF85C
:1054040001464046FAF712FF0AF1010A8046E5E731
:10541400069B029A4846991A00F0FEF84FF087411D
:105424008046FBF7BDF9F8B14FF06E514046FBF7EB
:1054340005F8FBF7C9F9FAF7ADFF4FF0874181464C
:10544400FAF7FCFF01464046FAF7EEFEFBF7BCF91B
:105454000AAB43F82400484601340837FBF7B4F993
:105464000AAB43F8240051E74046F7E70AAB53F888
:105474002A00FAF78FFF3946FAF7E0FF494648F861
:105484002A003846FAF7DAFF0AF1FF3A074648E7F6
:1054940053F8040B5BF8041B03920293FAF7CEFF54
:1054A40001464046FAF7C2FEDDE9023280460AF1BF
:1054B400010A01998A4501DCCA45E9DD5AAB03EBCF
:1054C400890949F8A08C013F31E7649B022B07DC72
:1054D400002B4EDC2ED006F007005BB0BDE8F08F49
:1054E400649B032BF7D10DF1C80B0BEB8407B84673
:1054F400A246BAF1000F49DCA146B9F1010F60DC04
:105504000020012C76DC329A339B002D78D100994F
:105514000A600A464B609060DDE757F82410FAF7FA
:1055240085FE013C002CF8DA0DB100F10040009B2F
:105534001860D0E7002032AFF4E757F82810FAF7E4
:1055440075FE08F1FF38B8F1000FF6DAADB100F1DD
:105554000043009A014613603298FAF765FE4FF053
:10556400010844450BDA0DB100F10040009B58607E
:10557400B1E7A046002032AFE5E70346E9E757F874
:10558400041FFAF753FE08F10108EAE7D8F80030DF
:1055940058F8042C1946104602930192FAF746FE75
:1055A400019A014681461046FAF73EFE029B0AF133
:1055B400FF3A1946FAF73AFE48F80409C8F8009089
:1055C40097E757F8043CD7F800A0184651460193D2
:1055D400FAF72CFE019B014680461846FAF724FE92
:1055E4005146FAF723FE47F8040909F1FF39C7F8D1
:1055F400008082E75BF82410FAF718FE013C80E78C
:10560400009902F1004203F100430A604B600A462C
:1056140000F100407FE700BF30F0004238B5034698
:105624000D4604462ED0B2F1FF4F04D30146FAF7DB
:10563400FDFD034626E010F0FF4F18D14FF09841CE
:10564400FAF7FCFE174A034695420CDB0446C0F306
:10565400C752193A4CF250318D420ADD12491846AC
:1056640061F31E0000E01149FAF7E8FEE1E7D20D0C
:10567400F0E75119FE29F1DC002905DD24F0FF448F
:1056840044EAC153184638BD11F1160F01DA07492F
:10569400E5E701F1190024F0FF444FF04C5144EACE
:1056A400C050E1E7B03CFFFFCAF249716042A20D6D
:1056B40070B5C0F3C7557F3D162D0146044620F052
:1056C400004626DC002D0FDA1749FAF7AFFD00215A
:1056D400FBF770F830B1002C23DA002E134C08BF0E
:1056E4004FF0004421461AE0114E2E41304216D0AC
:1056F4000D49FAF79BFD0021FBF75CF80028F1D077
:10570400002CBEBF4FF400032B41E41824EA060426
:10571400E8E7B6F1FF4F02D3FAF788FD01460846E1
:1057240070BD0024DEE700BFCAF24971000080BFEB
:10573400FFFF7F00F8B500BFF8BC08BC9E46704769
:0C574400F8B500BFF8BC08BC9E467047DA
:1057500000BF008600DB00CF00E600ED00FD008703
:1057600000FF00EF00F700FC00D800DE00F90000A9
:10577000000000000102030400000000000000001F
:1057800001020304060708090102000002030405E0
:10579000060708090A0B0C0D0E0F10105245454E56
:1057A00054206D616C6C6F63207375636365656411
:1057B0006564002F6275696C642F676E752D746F58
:1057C0006F6C732D666F722D73746D33325F31336E
:1057D0002E332E72656C312E3230323430393236FF
:1057E0002D313731352F7372632F6E65776C696297
:1057F0002F6E65776C69622F6C6962632F737464B6
:105800006C69622F72616E642E63002C2066756E67
:105810006374696F6E3A2000617373657274696FA7
:105820006E2022257322206661696C65643A2066C9
:10583000696C6520222573222C206C696E652025F9
:1058400064257325730A00232D302B2000686C4CCF
:1058500000656667454647003031323334353637A8
:1058600038394142434445460030313233343536CD
:10587000373839616263646566000000000FC93F14
:10588000000F494000CB9640000FC9400053FB4039
:1058900000CB164100ED2F41000F4941003162411C
:1058A00000537B41003A8A4100CB9641005CA34102
:1058B00000EDAF41007EBC41000FC94100A0D541C1
:1058C0000031E24100C2EE410053FB4100F20342CD
:1058D000003A0A420083104200CB164200141D42D7
:1058E000005C234200A5294200ED2F4200363642DB
:1058F000007E3C4200C74242000F4942A200000025
:10590000F9000000830000006E0000004E0000005F
:10591000440000001500000029000000FC00000009
:105920002700000057000000D1000000F500000033
:1059300034000000DD000000C0000000DB000000BB
:105940006200000095000000990000003C0000008B
:10595000430000009000000041000000FE00000035
:105960005100000063000000AB000000DE000000FA
:10597000BB000000C500000061000000B70000008F
:10598000240000006E0000003A0000004200000009
:105990004D000000D2000000E00000000600000002
:1059A000490000002E000000EA000000090000008D
:1059B000D1000000920000001C000000FE0000006A
:1059C0001D000000EB0000001C000000B100000002
:1059D00029000000A70000003E000000E8000000D1
:1059E0008200000035000000F50000002E000000DD
:1059F000BB0000004400000084000000E90000003B
:105A00009C0000007000000026000000B4000000B0
:105A10005F0000007E00000041000000390000002F
:105A200091000000D6000000390000008300000053
:105A30005300000039000000F40000009C0000004A
:105A4000840000005F0000008B000000BD0000002B
:105A5000F9000000280000003B0000001F000000CB
:105A6000F800000097000000FF000000DE000000CA
:105A700005000000980000000F000000EF0000008B
:105A80002F000000110000008B0000005A000000F1
:105A90000A0000006D0000001F0000006D00000003
:105AA000360000007E000000CF000000270000004C
:105AB000CB00000009000000B70000004F0000000C
:105AC000460000003F000000660000009E0000004D
